:1000000023C100003DC100003BC1000039C1000018
:1000100037C1000035C1000033C1000031C100000C
:100020002FC100002DC100002BC100000C94530D06
:1000300027C1000025C1000023C100000C942C0939
:100040001FC100001DC100001BC100005CC30000F7
:1000500017C1000015C1000013C1000054C2000008
:100060000FC100000DC100000BC1000009C100005C
:1000700007C1000018034100560052004900530018
:10008000500020006D006B00490049000000120381
:100090006500480061004A006F002E0064006500A2
:1000A00000000403090412011001FF000008EB0323
:1000B00004210002010203022203650048006100DE
:1000C0004A006F00200055005300420032005300E8
:1000D00065007200690061006C0000001203650099
:1000E000480061004A006F002E00640065000000B7
:1000F000040309041201100102000008D016A40B29
:1001000001000102000204000400040005000500D3
:1001100006000600060007000700070008000900A7
:10012000090009000A000A000B000C000C000D0079
:100130000E000F000F001000110012001300140039
:10014000150016001700180019001B001C001E00E7
:100150001F00210022002400260028002A002C0075
:100160002E0031003300360039003B003E004100D4
:10017000450048004C004F00540058005C006100EE
:1001800065006A00700075007B00810088008E00A9
:1001900096009D00A500AD00B500BE00C800D200CD
:1001A000DC00E700F200FE000A011801250134011D
:1001B000430153016401760188019B01AF01C50130
:1001C000DB01F3010B02250240025C027A02990274
:1001D000BA02DC02000326034E037703A303D10314
:1001E0000104320467049F04DA04150555059705D8
:1001F000E10528067606C7061F077A07D7073308E2
:10020000A30809097A09F609700AF70A7C0B0D0C94
:10021000AD0C480DF20D920E410F0110D510971143
:100220009812871378147B158C16A417D018091A06
:10023000501BA21C0B1E8C1F1921AF226F243726C6
:10024000404000410142430011241FBECFEFD4E0E3
:10025000DEBFCDBF11E0A0E0B1E0E6E7F1E202C011
:1002600005900D92A23CB107D9F712E0A2ECB1E0E3
:1002700001C01D92AC3EB107E1F77DD00C94B910DE
:10028000BFCEFC01A081B1816C93808191810196E8
:1002900091838083268137818217930721F484819B
:1002A0009581918380832FB7F894828593850196F9
:1002B000938782872FBF0895FC01A281B3818D911E
:1002C000B383A28326813781A217B30721F4248147
:1002D0003581338322839FB7F8942285338521505B
:1002E0003109338722879FBF0895FC012FB7F89407
:1002F00071836083738362837583648360587F4FE7
:100300007783668380E890E09187808713861286E2
:100310002FBF08958EB3843051F482E08093E900BA
:100320008091E80082FF03C02E9A0AD22E98089589
:1003300084B7877F84BF88E10FB6F894809360000C
:10034000109260000FBEE0EDF0E080818560808358
:10035000E1E6F0E080E8808310825098589A00002F
:100360000000000089B1809581708093C201269AB7
:100370002E9A0C94440DDCDF8091C20181110FC0D4
:1003800040E850E06FE472E08FEC92E0AEDF40E8CE
:1003900050E063EC71E083E492E0A7DF01C0C8D1D4
:1003A0007894C0E0D0E08091C201811166C08FB71F
:1003B000F8942091D9023091DA028FBF8091D70250
:1003C0009091D8022817390769F080E091E00E94E7
:1003D0009F0F97FD07C02E9A682F8FEC92E051DF98
:1003E000C0E0D0E02FB7F89480914D0290914E027A
:1003F0002FBF009739F12E9A209101012F70209381
:10040000E9002091E80020FD03C0C0E0D0E01AC060
:100410008031910510F08FE090E0182FC0E0D0E01F
:100420001C1799F3E0914502F0914602608180E04B
:1004300091E00E943B0F21968111E7CF83E492E087
:100440003BDFEECF8091C80085FF12C02FB7F89434
:100450008091D9029091DA022FBF892B49F08FEC5D
:1004600092E02ADF9091C80095FFFCCF8093CE00E8
:1004700080E091E00E948A0F01C04CDF0E94FB0ED9
:100480002196C83E83E0D80709F08DCF2E9889CFFA
:100490002E9808952E9A0895CF938091C2018111CC
:1004A00014C080E091E00E94160FC82F40E850E091
:1004B0006FE472E08FEC92E018DF40E850E063EC0C
:1004C00071E083E492E011DF06C042E360E882E07D
:1004D0000E94730CC82FCC2311F02E9801C02E9AC5
:1004E000CF910895FC01808980FF02C05F98089534
:1004F0005F9A08958091C201811104C080E091E06B
:100500000C94CC0F08951F920F920FB60F921124E6
:100510002F933F934F935F936F937F938F939F930B
:10052000AF93BF93EF93FF936091CE008EB384306F
:1005300089F48FB7F89420914D0230914E028FBF0D
:1005400080914B0290914C022817390719F083E4EF
:1005500092E097DEFF91EF91BF91AF919F918F91C4
:100560007F916F915F914F913F912F910F900FBEAF
:100570000F901F901895CF93FC01818D813031F041
:10058000823011F0C0E003C0C0E201C0C0E3808D42
:10059000823009F4C860828D873031F0883031F0C4
:1005A000863029F4C26003C0C46001C0C6605B9A93
:1005B0001092C9001092C8001092CA00248935898F
:1005C00046895789CA01B9019695879577956795A8
:1005D000605C7D4B804F9F4F0E947D102150310900
:1005E0003093CD002093CC00C093CA0082E080936A
:1005F000C80088E98093C9005B98CF9108957091F5
:10060000C201711101C001C037C0F9011082692F08
:1006100077276230710559F06330710581F06130E0
:10062000710511F582E190E024EF30E021C082E015
:10063000F90180838EE390E029E531E019C0992724
:100640008130910541F08230910541F0892B61F4B0
:10065000E0EFF0E005C0ECEDF0E002C0E8EBF0E028
:10066000849190E09F0104C080E090E020E030E0C1
:10067000FA01318320830895F9011082292F33274D
:100680002230310559F02330310579F02130310520
:1006900091F582E190E026EA30E031C082E080838B
:1006A00080E290E029E331E02AC09927813091056A
:1006B000C9F02CF4892BF9F4E2EAF0E018C082309A
:1006C000910599F00397B9F480911B0190E022E322
:1006D00030E030932A012093290122E020832BE18E
:1006E00031E00DC0EEE8F0E002C0E4E7F0E0849114
:1006F00090E09F0104C080E090E020E030E0FA014B
:1007000031832083089578941F920F920FB60F9231
:1007100011248F938AB5882321F08AB581508ABD30
:1007200001C015BC8F910F900FBE0F901F901895B0
:100730008DE487BD82E084BD80936E001AD1BAC576
:100740000F931F93CF93DF931F92CDB7DEB7109116
:10075000F10084E68ABD85E085BD133109F4BAC095
:1007600060F5163009F48BC048F4113009F440C02C
:1007700008F4BCC0143008F457C0B8C0103109F4F4
:10078000A5C098F41A3009F0B1C08091E8008B77C9
:100790008093E80082E08093E9008091EC00816022
:1007A0008093EC001093F1008EC0113109F490C0D9
:1007B000123109F09BC004D5BCC0183109F490C0B7
:1007C00060F4153109F486C008F487C0163109F4C5
:1007D00084C0173109F487C089C01D3120F41A3153
:1007E00008F481C07DC01D3109F080C0A1D3A1C033
:1007F0008091E8008B778093E80082E08093E900A5
:100800008091EC0081608093EC001093F1001092D5
:10081000F1008AE08093F10040E050E06AE070E08F
:1008200086EB91E04ED680C00091F100123011F4B9
:100830006091F1008091E8008B778093E80082E07E
:100840008093E9008091EC0081608093EC0010932C
:10085000F100802F6983A8D06981123039F481FFBB
:100860000CC01092F100802FAFD05EC080FF05C099
:100870001092F100802FA0D055C080EC53C040E012
:1008800050E064E070E08EED92E0ABD68091E8003D
:100890008B778093E80082E08093E9008091EC0000
:1008A00081608093EC008091DE029091DF02A09144
:1008B000E002B091E102B7FF03C081E08093DD0266
:1008C00086E08093F1001092F1002EC0C4D331C0B5
:1008D00044D42FC0812FBBD02CC0812FF0D129C090
:1008E000812F87D226C0812FDED223C08091F200D3
:1008F000803441F48091E8008B778093E8000E9477
:10090000E20CF4CF8091E8008B778093E80082E0DE
:100910008093E9008091EC0081608093EC0010935B
:10092000F10089EC8093F1008091E8008E7780934C
:10093000E80015BC0E94E20C82E08093E9008091FF
:10094000EC008E7F8093EC000F90DF91CF911F9190
:100950000F910895E7E9F1E09081891741F033960E
:1009600091E0E53BF907C1F780E090E00895CF0101
:100970000895CF93DF9381E090E00E949F10D82FDD
:1009800080E090E00E949F10C82FDF3F21F08EE9A9
:10099000E1DFFC01D283CF3F21F088E9DBDFFC01FE
:1009A000C283DF91CF910895D5DF009719F0FC0144
:1009B0008181089580E00895CDDF009719F0FC0152
:1009C0008281089580E008951F93CF93DF931F9253
:1009D000CDB7DEB7182F6983BDDF6981009789F035
:1009E000FC0162831E3919F481E090E004C01839DB
:1009F00041F480E090E00F90DF91CF911F910C9433
:100A0000A7100F90DF91CF911F9108959091B5019C
:100A1000992331F08EBD0DB407FEFDCF8EB508953C
:100A2000AEC49091B501992329F08EBD0DB407FE97
:100A3000FDCF0895A4C48091B501882331F01EBC78
:100A40000DB407FEFDCF8EB5089580E098C45F9287
:100A50006F927F928F929F92AF92BF92CF92DF92CE
:100A6000EF92FF920F931F93CF93DF93CDB7DEB733
:100A7000CA50D1400FB6F894DEBF0FBECDBF182FBD
:100A800040E050E069E070E0CE01019662D56A81F5
:100A900079817A836983613081E0780788F0809179
:100AA000E8008B778093E80082E08093E9008091F2
:100AB000EC0081608093EC001093F10080ECE1C0C9
:100AC00040E050E0CE010A9644D589819A810A9689
:100AD0008F739927892B31F48091E8008B7780936D
:100AE000E80070D78091E8008B778093E80082E07F
:100AF0008093E9008091EC0081608093EC001331D9
:100B000011F4988401C099848090DE027090DF0215
:100B1000FE013A965F01C12CD12CE12CF12C88E02A
:100B2000682E5524539489819A81C816D90608F0F5
:100B300078C0F50101915F019B818091DD028823DE
:100B400069F0C65FDE4F9883CA50D1406BD41092D3
:100B5000DD02C65FDE4F9881CA50D1408D81C65FED
:100B6000DE4F9883CA50D1405CDF8091DF0259DFAD
:100B70008091DE0256DF802F54DFC65FDE4F988102
:100B8000CA50D140133119F42D8126252D83E1144B
:100B9000F10479F4091569F08F81C0FE04C01331A6
:100BA00011F4886001C0877F8F83E090DE02F090AF
:100BB000DF0290FD11C0E114F10421F493FD02C0A5
:100BC000997F92600F812C81492DB701892F33D4F1
:100BD000811128C0E12CF12CC0FC02C01531E9F4D0
:100BE0008091DE029091DF02A091E002B091E102DB
:100BF0000196A11DB11D8093DE029093DF02A093A8
:100C0000E002B093E102133141F4AA27BB27892BFC
:100C10008A2B8B2B11F45092DD02FFEFCF1ADF0AE3
:100C200082CF80E09B8197FF2AC08E81FADE872DDC
:100C3000F8DE882DF6DE80E0F4DE8B8185FF06C0CD
:100C4000E114F10419F48F7C80618B830F812C8176
:100C5000492DB7018B81EFD3133189F44091DE0226
:100C60005091DF026091E0027091E10266277727E0
:100C7000452B462B472B19F491E09093DD021093FE
:100C8000F1008093F1008091E8008E778093E80076
:100C9000C65FDE4F0FB6F894DEBF0FBECDBFDF914B
:100CA000CF911F910F91FF90EF90DF90CF90BF9069
:100CB000AF909F908F907F906F905F900895DF929C
:100CC000EF92FF920F931F93CF93DF9300D01F9269
:100CD000CDB7DEB7F82E40E050E063E070E0CE0123
:100CE000019637D489819A8199838A838091E8001B
:100CF0008B778093E80082E08093E9008091EC009C
:100D000081608093EC00F092F1001092F10000E01D
:100D100010E098E0E92EDD24D39429813A8102176E
:100D2000130708F049C08091DD02882319F07AD3B7
:100D30001092DD028B8175DE8091DF0272DE809180
:100D4000DE026FDE78DE8093F1008091E80085FDA1
:100D500006C08091E8008E778093E80033D684E166
:100D6000F81203C08B818E258B8300FD03C086E1C2
:100D7000F8121FC04091DE025091DF026091E00244
:100D80007091E1024F5F5F4F6F4F7F4F4093DE02E4
:100D90005093DF026093E0027093E10286E1F8165F
:100DA00041F066277727452B462B472B11F4D0922D
:100DB000DD020F5F1F4FB1CF1092F1009091E8005C
:100DC0008091E8008E778093E80095FD07C0FAD502
:100DD0008091E8008E778093E800F4D50F900F9013
:100DE0000F90DF91CF911F910F91FF90EF90DF90C7
:100DF0000895BF92CF92DF92EF92FF920F931F93CD
:100E0000CF93DF93CDB7DEB729970FB6F894DEBF47
:100E10000FBECDBFB82E40E050E065E070E0CE01DF
:100E2000019697D39091E8009B779093E80082E039
:100E30008093E9009091EC0091609093EC008E011A
:100E40000E5F1F4F7E0186E0E80EF11C6701F8017E
:100E500081918F01DBDDF70181937F010C151D0569
:100E6000B1F7B092F1001092F1008981FE01E80F14
:100E7000F11D85818093F1001092F1008091E800CE
:100E80008E778093E80029960FB6F894DEBF0FBEE8
:100E9000CDBFDF91CF911F910F91FF90EF90DF9029
:100EA000CF90BF900895DF92EF92FF920F931F9320
:100EB000CF93DF9300D000D0CDB7DEB7D82E40E07F
:100EC00050E064E070E0CE01019643D39091E800D9
:100ED0009B779093E80082E08093E9009091EC008A
:100EE00091609093EC008E010F5F1F4F7E0185E0B3
:100EF000E80EF11CF80181918F0193DD0E151F059D
:100F0000C9F7D092F1001092F1001092F100809197
:100F1000E8008E778093E8000F900F900F900F906D
:100F2000DF91CF911F910F91FF90EF90DF90089587
:100F3000FF920F931F93CF93DF93CDB7DEB7C250CD
:100F4000D1400FB6F894DEBF0FBECDBF40E050E0F9
:100F500063E070E0CE010196FCD2698170E040E070
:100F600050E0CE010496F5D28091E8008B77809313
:100F7000E80082E08093E9008091EC00816080933A
:100F8000EC008DE18093F1001092F10010E08B8174
:100F9000181778F48981181740F4E4E0F0E0EC0FBA
:100FA000FD1FE10FF11D808101C080E03ADD1F5F70
:100FB000EECF00E08A81081708F58981181778F4C8
:100FC000FF24F394F10EE4E0F0E0EC0FFD1FE10FDD
:100FD000F11D80811BDD8093F1001F2D03C02BDDEF
:100FE0008093F1008091E80085FD06C08091E800C3
:100FF0008E778093E800E6D40F5FDCCF1092F1008B
:101000009091E8008091E8008E778093E80095FD4C
:1010100007C0D8D48091E8008E778093E800D2D4BE
:10102000CE5FDE4F0FB6F894DEBF0FBECDBFDF91AF
:10103000CF911F910F91FF900895882359F09AB591
:101040008150992339F0EFECF7E03197F1F700C0C8
:101050000000F3CF0895CF92DF92EF92FF920F93AB
:101060001F93CF93DF93CDB7DEB72F970FB6F894CA
:10107000DEBF0FBECDBF40E050E06BE070E0CE01C0
:10108000019667D28091E8008B778093E80082E038
:101090008093E9008091EC0081608093EC001092D5
:1010A000DE021092DF021092E0021092E1028B81C8
:1010B000C4DF3ED181E08CD18A81BFDF7E018CE02C
:1010C000E80EF11C8C819FEF980F9C83882359F1C7
:1010D0008AB5882341F18E01085F1F4F67018D811A
:1010E000ACDFF80181918F0191DCF60181936F01F2
:1010F0000E151F05A1F78F81882351F0EBE0F0E07A
:10110000EC0FFD1FE80FF11D90818E81981302C036
:1011100080E00AC080E05CD18A818FDF81E058D115
:101120008A818BDFCFCF80EC90E19093F1008093A8
:10113000F1008091E8008E778093E8002F960FB63B
:10114000F894DEBF0FBECDBFDF91CF911F910F91FD
:10115000FF90EF90DF90CF9008950F931F93CF9360
:10116000DF9300D0CDB7DEB740E050E062E070E042
:10117000CE010196EED108EE10E0F80180818B7768
:10118000808382E08093E900ECEEF0E08081816072
:101190008083898152DF80E01BD19ED08A814DDF20
:1011A000E1EFF0E081E180831082F80180818E77A9
:1011B00080830F900F90DF91CF911F910F91089531
:1011C000EF92FF920F931F93CF93DF9300D000D045
:1011D00000D0CDB7DEB740E050E066E070E0CE0171
:1011E0000196B7D18091E8008B778093E80082E088
:1011F0008093E9008091EC0081608093EC008E0187
:101200000D5F1F4F7E0187E0E80EF11CF801819110
:101210008F0107DC0E151F05C9F78A81811104C0F3
:1012200089810BDF80E001C0DFD092E19093F10073
:101230008093F1008091E8008E778093E8002696F5
:101240000FB6F894DEBF0FBECDBFDF91CF911F91D7
:101250000F91FF90EF9008951F920F920FB60F928B
:1012600011248F93199908C08091DC0287FF02C076
:101270002A9A19C02A9817C08091DC02880F80939F
:10128000DC028091DB0281508093DB02811104C07B
:101290001092810082E086BB1B9B05C08091DC021E
:1012A00081608093DC02199A8F910F900FBE0F908E
:1012B0001F9018953E9A10926F0010928500109220
:1012C0008400109289001092880080E4809380004E
:1012D00089E08093810008958091B501882349F0C9
:1012E00084B1897F84B985B1867F85B91CBC1DBC5A
:1012F000089584B1897F84B985B1867F85B9DACFB5
:1013000092E090936F001092850010928400E82F75
:10131000F0E0EE0FFF1FE850FF4F859194919093FE
:1013200089008093880010928000109281000895B7
:1013300088E942DB8730D0F491E09093B501E82F43
:10134000F0E0E05CFD4FE491209A289A84B1866039
:1013500084B923982B9A8DB5E6FF02C0816001C045
:101360008E7F8DBD2098E065ECBD08951092B5018B
:1013700094B1966094B995B1996095B9C1CF8093B5
:10138000DC0288E08093DB028091DC0287FF02C0F0
:101390002A9A01C02A9810928500109284008AE04F
:1013A000809381008091DB02882319F08AB5811136
:1013B000F9CF109281008091DC0208959091B501DF
:1013C000992329F08EBD0DB407FEFDCF0895D7CF28
:1013D000882339F0249A8EE9EFDA811103C02C9A20
:1013E000089524982C98089580EFE8DF80E0E6DFE8
:1013F00080E0E4DF8091B501882331F01EBC0DB49C
:1014000007FEFDCF8EB502C080E0B9DF80FF03C0CC
:101410008AB58111E9CF8AB5882311F080E008955B
:1014200081E808958DE4CADF80E0C8DF8091E002A2
:10143000C5DF80E0C3CF0F931F93CF93DF93EB0102
:10144000142F8E77E82FF0E0E830F10571F134F4D5
:10145000E230F10559F03497A9F029C0E032F105E6
:1014600089F0E034F10509F1709709F5822FE5DD87
:101470001EC00DB407FEFDCF8EB5811312C08AB514
:10148000882379F0802F9ADF8D2F98DF8C2F96DFBD
:101490008091B501882311F01EBCEBCF80E06FDF97
:1014A000ECCF8AB5882329F002C09EDF03C080E01C
:1014B00001C080E894E69ABDDF91CF911F910F9112
:1014C0000895CF92DF92EF92FF920F931F93CF93E5
:1014D000DF937C018B01EA0175D2811131C0209725
:1014E00031F088819981081B190BE80EF91EC12C77
:1014F000D12C0115110519F18091E80085FD14C06A
:101500008091E8008E778093E80075D4209741F0B1
:10151000888199818C0D9D1D9983888385E010C0F9
:1015200051D2882331F30CC0F70181917F01809360
:10153000F10001501109FFEFCF1ADF0ADACF80E086
:10154000DF91CF911F910F91FF90EF90DF90CF909F
:101550000895CF92DF92EF92FF920F931F93CF9354
:10156000DF937C018B01EA012DD2811131C02097DC
:1015700031F088819981081B190BE80EF91EC12CE6
:10158000D12C0115110519F18091E80085FD14C0D9
:101590008091E8008B778093E8002DD4209741F06C
:1015A000888199818C0D9D1D9983888385E010C069
:1015B00009D2882331F30CC08091F100F7018193A7
:1015C0007F0101501109FFEFCF1ADF0ADACF80E067
:1015D000DF91CF911F910F91FF90EF90DF90CF900F
:1015E0000895CF92DF92EF92FF920F931F93CF93C4
:1015F000DF936C018B017A01E5D1811138C0E801DC
:101600002197CC0DDD1DE114F10439F0F701808143
:101610009181081B190BC81BD90BC12CD12C0115AA
:10162000110521F18091E80085FD16C08091E80048
:101630008B778093E800DFD3E114F10449F0F701E0
:10164000808191818C0D9D1D9183808385E00FC0E9
:10165000B9D1882321F30BC08091F10088832197B1
:1016600001501109FFEFCF1ADF0AD9CF80E0DF91D7
:10167000CF911F910F91FF90EF90DF90CF90089541
:101680002091EA023091EB022617370748F06115E6
:10169000710539F42091E8002E772093E80001C00D
:1016A000B90120E061157105C9F13EB3332309F496
:1016B00042C0353009F441C03091E80033FD3FC0ED
:1016C0003091E80032FF06C08091E80082FF29C017
:1016D00080E008953091E80030FFE4CF2091F200DF
:1016E00030E0FC01281B390BCF01820F931F6115DD
:1016F000710549F08830910530F481918093F100B3
:1017000061507109F1CF21E0089709F020E0809144
:10171000E8008E778093E800CF01C4CF2111C5CFB8
:10172000D3CF8EB3882339F0853039F08091E8002B
:1017300083FFCACF04C082E0089583E0089581E06A
:1017400008952091EA023091EB022617370748F0FE
:101750006115710539F42091E8002E772093E80097
:1017600001C0B90120E061157105D1F13EB3332309
:1017700009F443C0353009F442C03091E80033FD2C
:1017800040C03091E80032FF06C08091E80082FF3F
:101790002AC080E008953091E80030FFE4CF209126
:1017A000F20030E0FC01281B390BC9018E0F9F1F8E
:1017B0006115710551F08830910538F4849180935A
:1017C000F100319661507109F0CF21E0089709F0DE
:1017D00020E08091E8008E778093E800CF01C3CFAE
:1017E0002111C4CFD2CF8EB3882339F0853039F0A0
:1017F0008091E80083FFC9CF04C082E0089583E0B0
:10180000089581E00895EF92FF920F931F93CF9375
:10181000DF938B012091EA023091EB022617370704
:1018200048F06115710539F42091E8002E77209376
:10183000E80001C0890120E001151105D9F13EB38E
:10184000332309F444C0353009F443C03091E80033
:1018500033FD41C03091E80032FF06C08091E800BE
:1018600082FF2BC080E038C03091E80030FFE4CF29
:10187000E090F200F12CEC01E81AF90ACE018E0D8D
:101880009F1D0115110559F08830910540F4CE01D6
:1018900056D48093F100219601501109EFCF21E039
:1018A000089709F020E08091E8008E778093E800A7
:1018B000CE01C2CF2111C3CFD1CF8EB3882339F04F
:1018C000853039F08091E80083FFC8CF04C082E002
:1018D00003C083E001C081E0DF91CF911F910F91A0
:1018E000FF90EF9008958F708093E900EBEEF0E0A9
:1018F000808181608083EDEEF0E010826093EC00E7
:1019000040838091EE00881F8827881F08950F93D9
:101910001F93CF93DF93062FEC0110E0101769F1AE
:101920009881992339F12C81E981FA816B81892F82
:101930008F70853010F080E021C0223010F056E02A
:1019400001C052E028E030E040E02E173F0720F4CD
:101950004F5F220F331FF9CF4295407F452B991FD0
:101960009927991F6295660F660F607C692BBBDF14
:10197000882309F31F5F2596D1CF81E0DF91CF91B6
:101980001F910F9108958091E40287FD05C0809119
:10199000E80080FF0DC010C08091E80082FD04C007
:1019A0008EB38111F9CF08958091E8008B7707C03D
:1019B0008EB38111ECCF08958091E8008E778093EB
:1019C000E80008958091E4009091E5004BEF2091AC
:1019D000EC0020FF20C02091E80020FD20C02EB3A5
:1019E000222389F0253089F02091EB0025FD0FC0DE
:1019F0002091E4003091E5002817390741F3415068
:101A000041F0C901E4CF82E0089583E0089581E0C8
:101A1000089584E008952091E80022FFE0CF80E05F
:101A200008953BD03DD08091D8008F778093D80027
:101A30008091D80080688093D8008091D8008F7DF5
:101A40008093D80019BC82E089BD09B400FEFDCFA7
:101A50001EBA1092E20242E060E080E044DF809132
:101A6000E1008E7F8093E1008091E20081608093AD
:101A7000E2008091E20088608093E2008091E000C3
:101A80008E7F8093E0000895E3E6F0E080818E7F12
:101A9000808381E08093E302C4CF1092E200089536
:101AA0001092E10008951F920F920FB60F92112429
:101AB0002F933F934F935F936F937F938F939F9356
:101AC000AF93BF93EF93FF938091E10080FF17C026
:101AD0008091E20080FF13C08091E2008E7F8093AE
:101AE000E2008091E20080618093E2008091D80062
:101AF00080628093D80019BC1EBA0E944A0280916D
:101B0000E10084FF2EC08091E20084FF2AC019BC4E
:101B100082E089BD09B400FEFDCF8091D8008F7DA1
:101B20008093D8008091E1008F7E8093E1008091C6
:101B3000E2008F7E8093E2008091E20081608093DA
:101B4000E2008091E202882311F084E007C08091D6
:101B5000E30087FF02C083E001C081E08EBB0E94EA
:101B600048028091E10083FF21C08091E20083FF61
:101B70001DC08091E100877F8093E10082E08EBBF1
:101B80001092E2028091E1008E7F8093E1008091CB
:101B9000E2008E7F8093E2008091E200806180937A
:101BA000E20042E060E080E09EDE24D1FF91EF9110
:101BB000BF91AF919F918F917F916F915F914F9165
:101BC0003F912F910F900FBE0F901F9018951F936C
:101BD000CF93DF9300D01F92CDB7DEB7E4EEF2E0F3
:101BE0008091F100819382E0EC3EF807C9F70E94F2
:101BF0007A028091E80083FFE8C09091E40280912E
:101C0000E502853009F465C030F4813059F168F09F
:101C1000833041F1DAC0883009F4A9C0893009F471
:101C2000B8C0863009F0D1C075C0903881F09238C4
:101C300009F0CBC08091E8028F708093E900909109
:101C4000EB0095FB992790F91092E90001C090E014
:101C50008091E800877F8093E8009093F1001092D4
:101C6000F10090C0292F2D7F09F0AFC0923009F00C
:101C7000ACC09091E602911126C02091E8022F702D
:101C800009F4A3C02093E9009091EB0090FF1BC0E2
:101C9000833021F48091EB00806213C08091EB00CF
:101CA00080618093EB0081E090E0022E01C0880FFC
:101CB0000A94EAF78093EA001092EA008091EB0020
:101CC00088608093EB001092E9008091E800877FA4
:101CD0005CC091117AC01091E6021F778091E300F9
:101CE0008078812B8093E3008091E800877F809348
:101CF000E80049DE8091E80080FFFCCF8091E3009E
:101D000080688093E300112311F083E001C082E03A
:101D10008EBB5BC09058923008F057C09E012D5F7B
:101D20003F4FAE014F5F5F4F6091E8028091E60246
:101D30009091E7020E94FF02BC01009709F445C0A0
:101D40008091E800877F8093E8002B8189819A81C8
:101D5000211102C0F6DC05C0213011F454DD01C0B0
:101D60008FDC8091E8008B778093E8002EC090385C
:101D700061F58091E800877F8093E8008091E2021E
:101D80008093F1008091E8008E778093E800FBDD7E
:101D90001CC091111AC09091E6029330B0F480916A
:101DA000E800877F8093E8009093E202ECDD809169
:101DB000E202811104C08091E30087FF02C084E049
:101DC00001C081E08EBB0E944C028091E80083FF3D
:101DD0000AC08091E800877F8093E8008091EB0043
:101DE00080628093EB000F900F900F90DF91CF9166
:101DF0001F9108950895CF938EB38823A9F0809101
:101E0000E9008F709091EC0090FF02C090E801C053
:101E100090E0C92FC82B1092E9008091E80083FD63
:101E2000D6DECF70C093E900CF910895CF93DF93B2
:101E3000EC01FC0170968BE0DF011D928A95E9F7B9
:101E400082E08C83898783E08E8761E0CE010196F2
:101E50005EDD882361F061E0CE01069658DD8823BF
:101E600031F061E0CE010B96DF91CF9150CD80E053
:101E7000DF91CF910895CF93C62F2EB32430F1F484
:101E8000FC014489558966897789452B462B472B68
:101E9000A9F081818F708093E9008091E80085FF2F
:101EA00004C0C093F10080E00AC08091E8008E7702
:101EB0008093E80087DD8823A1F301C082E0CF9101
:101EC00008952EB3243021F5FC0144895589668993
:101ED0007789452B462B472BD9F081818F708093D2
:101EE000E9008091F200882389F09091E8008091C8
:101EF000E8008E778093E80095FD08C063DD8111CE
:101F000008C08091E8008E778093E80080E0089513
:101F100082E008952EB3243089F4FC014489558968
:101F200066897789452B462B472B41F021812F70FD
:101F30002093E9002091E80020FDC3CF08952EB33F
:101F4000243019F08FEF9FEF0895FC0144895589E3
:101F500066897789452B462B472BA1F386818F70A5
:101F60008093E9008091E80082FFECCF8091F2003D
:101F7000882321F02091F10030E002C02FEF3FEFE5
:101F80008091F200811105C08091E8008B778093E9
:101F9000E800C90108950895CF93DF93EC01809183
:101FA000E80083FFA7C0888190E02091E80230918B
:101FB000E9022817390709F09DC08091E5028132B6
:101FC00061F020F4803209F43EC094C0823209F4FA
:101FD0006CC0833209F47EC08DC08091E402813AE6
:101FE00009F088C08091E800877F8093E8008091A5
:101FF000E80080FFFCCF4C895D896E897F89409322
:10200000F100BB27A72F962F852F8093F100CB01DE
:10201000AA27BB278093F100472F552766277727EC
:102020004093F100888D8093F100898D8093F100B9
:102030008A8D8093F1008091E8008E778093E8008C
:10204000DF91CF91A0CC8091E402813209F052C09F
:102050008091E800877F8093E8008091E80082FD0E
:1020600004C08EB38111F9CF45C03091F1002091A9
:10207000F1009091F1008091F1003C8B2D8B9E8BB3
:102080008F8B8091F100888F8091F100898F8091F2
:10209000F1008A8F8091E8008B778093E80073DCF1
:1020A000CE01DF91CF910C94BB028091E40281328A
:1020B00009F58091E800877F8093E80064DC8091D7
:1020C000E6029091E702998B888BCE01DF91CF9148
:1020D0000C9472028091E402813261F48091E800F4
:1020E000877F8093E8004FDC6091E602CE01DF91AC
:1020F000CF9151CFDF91CF910895A1E21A2EAA1B63
:10210000BB1BFD010DC0AA1FBB1FEE1FFF1FA217A7
:10211000B307E407F50720F0A21BB30BE40BF50BA4
:10212000661F771F881F991F1A9469F7609570952D
:10213000809590959B01AC01BD01CF010895F9995F
:10214000FECF92BD81BDF89A992780B50895262FBC
:10215000F999FECF92BD81BDF89A019700B402169D
:1021600039F01FBA20BD0FB6F894FA9AF99A0FBE4B
:062170000895F894FFCF72
:102176000083100000010410000001820800000125
:1021860000000000000000000000001C03300030CA
:1021960000300032003000300030003100320033B1
:1021A6000034003500000000000902200001010093
:1021B600C0320904000002FF000000070582024049
:1021C600000A0705020240000A09023E0002010059
:1021D600C0320904000001020201000524001001BA
:1021E600042402060524060001070582030800FFF1
:1021F60009040100020A0000000705040210000598
:10220600070583021000058001008101009001008E
:102216009101019201189401219803069E0301A1E0
:102226000100A40300014156524953505F4D4B3201
:022236000000A6
:00000001FF
