:1000000024C100003EC100003CC100003AC1000014
:1000100038C1000036C1000034C1000032C1000008
:1000200030C100002EC100002CC100000C946A0DEC
:1000300028C1000026C1000024C100000C94400922
:1000400020C100001EC100001CC1000070C30000E0
:1000500018C1000016C1000014C1000068C20000F1
:1000600010C100000EC100000CC100000AC1000058
:1000700008C1000018034100560052004900530017
:10008000500020006D006B00490049000000120381
:100090006500480061004A006F002E0064006500A2
:1000A00000000403090412011001FF000008EB0323
:1000B00004210002010203022403650048006100DC
:1000C0004A006F002000470073006300680065006D
:1000D00069006400750069006E006F000000120383
:1000E0006500480061004A006F002E006400650052
:1000F0000000040309041201100102000008D016D8
:10010000A30B01000102000209000A000A000B0013
:100110000C000D000D000E000F001000100012006A
:1001200013001300140016001600180019001A001E
:100130001C001D001F0020002200230025002700B6
:1001400029002B002E0030003200340037003A0026
:100150003D004000430046004A004E00520055005A
:100160005A005E00630068006D00730078007E0036
:1001700084008B0091009900A000A900B100B90093
:10018000C300CC00D600E100EC00F700040111012F
:100190001E012D013B014B015B016C017D019101B1
:1001A000A501BA01CF01E601FE01160231024C029F
:1001B0006A028802A802CA02ED0211033803600332
:1001C0008B03B803E70318044B048104B904F50456
:1001D00034057505B90501064E069D06EF0648076C
:1001E000A30704086508D0084009B6092B0AAB0A22
:1001F000300BC30B510CEE0C8F0D400EF60EAF0FF3
:10020000681047111412F512ED13E214F015F916E7
:100210001B185C19911AE51B251D831E0320AB21B9
:10022000302332250F27F128F82A1A2D492FA13122
:100230001434A1364539173C1A3F34426045DF4833
:10024000704C400041014243030011241FBECFEF18
:10025000D4E0DEBFCDBF11E0A0E0B1E0E6EAF1E21C
:1002600002C005900D92A23CB107D9F712E0A2ECB2
:10027000B1E001C01D92AC3EB107E1F789D00C940A
:10028000D110BECEFC01A081B1816C93808191819F
:10029000019691838083268137818217930721F409
:1002A00084819581918380832FB7F894828593858B
:1002B0000196938782872FBF0895FC01A281B381A5
:1002C0008D91B383A28326813781A217B30721F4CE
:1002D00024813581338322839FB7F8942285338527
:1002E00021503109338722879FBF0895FC012FB722
:1002F000F894718360837383628375836483605829
:100300007F4F7783668380E890E0918780871386AC
:1003100012862FBF08958EB3843051F482E080930B
:10032000E9008091E80082FF03C05E981DD25E9ACA
:10033000089584B7877F84BF88E10FB6F8948093CF
:100340006000109260000FBEE0EDF0E080818560FB
:100350008083E1E6F0E080E8808310823D98459A52
:1003600000000000000086B185FB882780F991E03D
:1003700089278093C2015F9A579A84B1817E84B99C
:100380008AB180678AB98BB180678BB90C945B0D99
:10039000D0DF8091C20181110FC040E850E06FE4CE
:1003A00072E08FEC92E0A2DF40E850E063EC71E095
:1003B00083E492E09BDF01C0CFD17894C0E0D0E02D
:1003C0008091C20181116BC08FB7F8942091D9023E
:1003D0003091DA028FBF8091D7029091D80228170E
:1003E000390769F080E091E00E94B70F97FD07C0E0
:1003F0005C98682F8FEC92E045DFC0E0D0E02FB72B
:10040000F89480914D0290914E022FBF009739F1E0
:100410005D98209101012F702093E9002091E80060
:1004200020FD03C0C0E0D0E01AC08031910510F07B
:100430008FE090E0182FC0E0D0E01C1799F3E09116
:100440004502F0914602608180E091E00E94530FE6
:1004500021968111E7CF83E492E02FDFEECF8091E8
:10046000C80085FF12C02FB7F8948091D9029091EF
:10047000DA022FBF892B49F08FEC92E01EDF9091BA
:10048000C80095FFFCCF8093CE0080E091E00E94F1
:10049000A20F199B02C05E9803C05E9A01C03BDFA9
:1004A0000E94130F2196C83E83E0D80709F088CF39
:1004B0008BB180638BB982CF5E9A08955E98089560
:1004C000CF938091C201811114C080E091E00E941D
:1004D0002E0FC82F40E850E06FE472E08FEC92E0FE
:1004E00005DF40E850E063EC71E083E492E0FEDE7B
:1004F00006C042E360E882E00E94890CC82FCC234A
:1005000011F05E9A01C05E98CF910895FC01808938
:1005100080FF02C05F9808955F9A08958091C2019C
:10052000811104C080E091E00C94E40F08951F92C3
:100530000F920FB60F9211242F933F934F935F9317
:100540006F937F938F939F93AF93BF93EF93FF939B
:100550006091CE008EB3843089F48FB7F8942091E7
:100560004D0230914E028FBF80914B0290914C0210
:100570002817390719F083E492E084DEFF91EF91A8
:10058000BF91AF919F918F917F916F915F914F91AB
:100590003F912F910F900FBE0F901F901895CF9302
:1005A000FC01818D813031F0823011F0C0E003C058
:1005B000C0E201C0C0E3808D823009F4C860828D42
:1005C000873031F0883031F0863029F4C26003C0C2
:1005D000C46001C0C6605B9A1092C9001092C80046
:1005E0001092CA002489358946895789CA01B90100
:1005F000969587957795679560587B47814E9F4F75
:100600000E949510215031093093CD002093CC00E9
:10061000C093CA0082E08093C80088E98093C90033
:100620005B98CF9108957091C201711101C001C012
:1006300037C0F9011082692F77276230710559F0B0
:100640006330710581F06130710511F582E190E050
:1006500026EF30E021C082E0F90180838EE390E054
:1006600029E531E019C099278130910541F08230A8
:10067000910541F0892B61F4E2EFF0E005C0EEED69
:10068000F0E002C0E8EBF0E0849190E09F0104C04C
:1006900080E090E020E030E0FA013183208308958B
:1006A000F9011082292F33272230310559F02330E8
:1006B000310579F02130310591F582E190E026EAAB
:1006C00030E031C082E0808380E290E029E331E0D5
:1006D0002AC0992781309105C9F02CF4892BF9F4AF
:1006E000E2EAF0E018C08230910599F00397B9F47E
:1006F00080911B0190E022E330E030932A012093A7
:10070000290122E020832BE131E00DC0EEE8F0E08A
:1007100002C0E4E7F0E0849190E09F0104C080E033
:1007200090E020E030E0FA0131832083089578944E
:100730001F920F920FB60F9211248F938AB58823C0
:1007400021F08AB581508ABD01C015BC8F910F90F0
:100750000FBE0F901F9018958BE987BD82E084BD76
:1007600080936E001AD1BAC50F931F93CF93DF9376
:100770001F92CDB7DEB71091F10084E68ABD85E007
:1007800085BD133109F4BAC060F5163009F48BC089
:1007900048F4113009F440C008F4BCC0143008F427
:1007A00057C0B8C0103109F4A5C098F41A3009F048
:1007B000B1C08091E8008B778093E80082E080935D
:1007C000E9008091EC0081608093EC001093F100CF
:1007D0008EC0113109F490C0123109F09BC004D5CC
:1007E000BCC0183109F490C060F4153109F486C01A
:1007F00008F487C0163109F484C0173109F487C0A2
:1008000089C01D3120F41A3108F481C07DC01D312A
:1008100009F080C0A1D3A1C08091E8008B778093BC
:10082000E80082E08093E9008091EC008160809391
:10083000EC001093F1001092F1008AE08093F10037
:1008400040E050E06AE070E086EB91E050D680C076
:100850000091F100123011F46091F1008091E800F4
:100860008B778093E80082E08093E9008091EC0030
:1008700081608093EC001093F100802F6983A8D0F1
:100880006981123039F481FF0CC01092F100802F81
:10089000AFD05EC080FF05C01092F100802FA0D0C5
:1008A00055C080EC53C040E050E064E070E08EED55
:1008B00092E0ADD68091E8008B778093E80082E0EB
:1008C0008093E9008091EC0081608093EC0080913E
:1008D000DE029091DF02A091E002B091E102B7FF49
:1008E00003C081E08093DD0286E08093F1001092E6
:1008F000F1002EC0C4D331C044D42FC0812FBBD04F
:100900002CC0812FF0D129C0812F87D226C0812F02
:10091000DED223C08091F200803441F48091E8005F
:100920008B778093E8000E94F80CF4CF8091E80068
:100930008B778093E80082E08093E9008091EC005F
:1009400081608093EC001093F10089EC8093F100BA
:100950008091E8008E778093E80015BC0E94F80C27
:1009600082E08093E9008091EC008E7F8093EC0020
:100970000F90DF91CF911F910F910895E7E9F1E07A
:100980009081891741F0339691E0E53BF907C1F773
:1009900080E090E00895CF010895CF93DF9381E048
:1009A00090E00E94B710D82F80E090E00E94B7102E
:1009B000C82FDF3F21F08EE9E1DFFC01D283CF3F7A
:1009C00021F088E9DBDFFC01C283DF91CF9108953C
:1009D000D5DF009719F0FC018181089580E008952A
:1009E000CDDF009719F0FC018281089580E0089521
:1009F0001F93CF93DF931F92CDB7DEB7182F698374
:100A0000BDDF6981009789F0FC0162831E3919F40A
:100A100081E090E004C0183941F480E090E00F904C
:100A2000DF91CF911F910C94BF100F90DF91CF9168
:100A30001F9108959091B501992331F08EBD0DB4A9
:100A400007FEFDCF8EB50895B0C49091B5019923EE
:100A500029F08EBD0DB407FEFDCF0895A6C4809188
:100A6000B501882331F01EBC0DB407FEFDCF8EB555
:100A7000089580E09AC45F926F927F928F929F92C6
:100A8000AF92BF92CF92DF92EF92FF920F931F939C
:100A9000CF93DF93CDB7DEB7CA50D1400FB6F894ED
:100AA000DEBF0FBECDBF182F40E050E069E070E020
:100AB000CE01019664D56A8179817A836983613038
:100AC00081E0780788F08091E8008B778093E800D8
:100AD00082E08093E9008091EC0081608093EC00DB
:100AE0001093F10080ECE1C040E050E0CE010A96A6
:100AF00046D589819A810A968F739927892B31F47B
:100B00008091E8008B778093E80072D78091E800AD
:100B10008B778093E80082E08093E9008091EC007D
:100B200081608093EC00133111F4988401C09984A2
:100B30008090DE027090DF02FE013A965F01C12CC8
:100B4000D12CE12CF12C88E0682E55245394898116
:100B50009A81C816D90608F078C0F50101915F01A5
:100B60009B818091DD02882369F0C65FDE4F988308
:100B7000CA50D1406DD41092DD02C65FDE4F98811D
:100B8000CA50D1408D81C65FDE4F9883CA50D14094
:100B90005CDF8091DF0259DF8091DE0256DF802F1B
:100BA00054DFC65FDE4F9881CA50D140133119F42B
:100BB0002D8126252D83E114F10479F4091569F0BE
:100BC0008F81C0FE04C0133111F4886001C0877F9B
:100BD0008F83E090DE02F090DF0290FD11C0E114FF
:100BE000F10421F493FD02C0997F92600F812C8162
:100BF000492DB701892F35D4811128C0E12CF12C62
:100C0000C0FC02C01531E9F48091DE029091DF0250
:100C1000A091E002B091E1020196A11DB11D809367
:100C2000DE029093DF02A093E002B093E102133161
:100C300041F4AA27BB27892B8A2B8B2B11F45092C6
:100C4000DD02FFEFCF1ADF0A82CF80E09B8197FFA2
:100C50002AC08E81FADE872DF8DE882DF6DE80E050
:100C6000F4DE8B8185FF06C0E114F10419F48F7C5A
:100C700080618B830F812C81492DB7018B81F1D34A
:100C8000133189F44091DE025091DF026091E0025D
:100C90007091E10266277727452B462B472B19F4E5
:100CA00091E09093DD021093F1008093F100809128
:100CB000E8008E778093E800C65FDE4F0FB6F894A9
:100CC000DEBF0FBECDBFDF91CF911F910F91FF907F
:100CD000EF90DF90CF90BF90AF909F908F907F90DC
:100CE0006F905F900895DF92EF92FF920F931F93A2
:100CF000CF93DF9300D01F92CDB7DEB7F82E40E040
:100D000050E063E070E0CE01019639D489819A8188
:100D100099838A838091E8008B778093E80082E052
:100D20008093E9008091EC0081608093EC00F09268
:100D3000F1001092F10000E010E098E0E92EDD24CF
:100D4000D39429813A810217130708F049C0809192
:100D5000DD02882319F07CD31092DD028B8175DED1
:100D60008091DF0272DE8091DE026FDE78DE80939A
:100D7000F1008091E80085FD06C08091E8008E7743
:100D80008093E80035D684E1F81203C08B818E256C
:100D90008B8300FD03C086E1F8121FC04091DE0284
:100DA0005091DF026091E0027091E1024F5F5F4F6E
:100DB0006F4F7F4F4093DE025093DF026093E0025B
:100DC0007093E10286E1F81641F066277727452BFC
:100DD000462B472B11F4D092DD020F5F1F4FB1CF8E
:100DE0001092F1009091E8008091E8008E77809356
:100DF000E80095FD07C0FCD58091E8008E778093D0
:100E0000E800F6D50F900F900F90DF91CF911F91D2
:100E10000F91FF90EF90DF900895BF92CF92DF92F5
:100E2000EF92FF920F931F93CF93DF93CDB7DEB76F
:100E300029970FB6F894DEBF0FBECDBFB82E40E0A5
:100E400050E065E070E0CE01019699D39091E80002
:100E50009B779093E80082E08093E9009091EC000A
:100E600091609093EC008E010E5F1F4F7E0186E033
:100E7000E80EF11C6701F80181918F01DBDDF701BC
:100E800081937F010C151D05B1F7B092F10010920E
:100E9000F1008981FE01E80FF11D85818093F10049
:100EA0001092F1008091E8008E778093E8002996F7
:100EB0000FB6F894DEBF0FBECDBFDF91CF911F916B
:100EC0000F91FF90EF90DF90CF90BF900895DF9249
:100ED000EF92FF920F931F93CF93DF9300D000D038
:100EE000CDB7DEB7D82E40E050E064E070E0CE0130
:100EF000019645D39091E8009B779093E80082E0BB
:100F00008093E9009091EC0091609093EC008E0149
:100F10000F5F1F4F7E0185E0E80EF11CF801819103
:100F20008F0193DD0E151F05C9F7D092F1001092C5
:100F3000F1001092F1008091E8008E778093E80034
:100F40000F900F900F900F90DF91CF911F910F9105
:100F5000FF90EF90DF900895FF920F931F93CF9330
:100F6000DF93CDB7DEB7C250D1400FB6F894DEBFE5
:100F70000FBECDBF40E050E063E070E0CE010196CF
:100F8000FED2698170E040E050E0CE010496F7D2D5
:100F90008091E8008B778093E80082E08093E900FD
:100FA0008091EC0081608093EC008DE18093F100F2
:100FB0001092F10010E08B81181778F489811817CE
:100FC00040F4E4E0F0E0EC0FFD1FE10FF11D808143
:100FD00001C080E03ADD1F5FEECF00E08A81081794
:100FE00008F58981181778F4FF24F394F10EE4E0F2
:100FF000F0E0EC0FFD1FE10FF11D80811BDD809300
:10100000F1001F2D03C02BDD8093F1008091E800DB
:1010100085FD06C08091E8008E778093E800E8D4D3
:101020000F5FDCCF1092F1009091E8008091E80012
:101030008E778093E80095FD07C0DAD48091E800B0
:101040008E778093E800D4D4CE5FDE4F0FB6F8944D
:10105000DEBF0FBECDBFDF91CF911F910F91FF90EB
:101060000895882359F09AB58150992339F0EFE912
:10107000FFE03197F1F700C00000F3CF0895CF9261
:10108000DF92EF92FF920F931F93CF93DF93CDB731
:10109000DEB72F970FB6F894DEBF0FBECDBF40E08E
:1010A00050E06BE070E0CE01019669D28091E800DB
:1010B0008B778093E80082E08093E9008091EC00D8
:1010C00081608093EC001092DE021092DF02109299
:1010D000E0021092E1028B81C4DF40D181E08ED129
:1010E0008A81BFDF7E018CE0E80EF11C8C819FEFCE
:1010F000980F9C83882359F18AB5882341F18E018A
:10110000085F1F4F67018D81ACDFF80181918F016E
:1011100091DCF60181936F010E151F05A1F78F81F8
:10112000882351F0EBE0F0E0EC0FFD1FE80FF11D1C
:1011300090818E81981302C080E00AC080E05ED169
:101140008A818FDF81E05AD18A818BDFCFCF80EC1B
:1011500090E19093F1008093F1008091E8008E7708
:101160008093E8002F960FB6F894DEBF0FBECDBF78
:10117000DF91CF911F910F91FF90EF90DF90CF9073
:1011800008950F931F93CF93DF9300D0CDB7DEB7B1
:1011900040E050E062E070E0CE010196F0D108EE50
:1011A00010E0F80180818B77808382E08093E900F2
:1011B000ECEEF0E0808181608083898152DF80E005
:1011C0001DD1A0D08A814DDFE1EFF0E081E1808385
:1011D0001082F80180818E7780830F900F90DF91CD
:1011E000CF911F910F910895EF92FF920F931F934C
:1011F000CF93DF9300D000D000D0CDB7DEB740E072
:1012000050E066E070E0CE010196B9D18091E8002F
:101210008B778093E80082E08093E9008091EC0076
:1012200081608093EC008E010D5F1F4F7E0187E08F
:10123000E80EF11CF80181918F0107DC0E151F05E6
:10124000C9F78A81811104C089810BDF80E001C068
:10125000E1D092E19093F1008093F1008091E80059
:101260008E778093E80026960FB6F894DEBF0FBE07
:10127000CDBFDF91CF911F910F91FF90EF90089517
:101280001F920F920FB60F9211248F93199908C0D5
:101290008091DC0287FF02C02A9A19C02A9817C0E1
:1012A0008091DC02880F8093DC028091DB02815008
:1012B0008093DB02811104C01092810082E086BB22
:1012C0001B9B05C08091DC0281608093DC02199A2F
:1012D0008F910F900FBE0F901F9018953E9A10920D
:1012E0006F00109285001092840081E090E090934E
:1012F00089008093880080E48093800089E0809357
:10130000810008958091B501882349F084B1897FD7
:1013100084B985B1867F85B91CBC1DBC089584B194
:10132000897F84B985B1867F85B9D8CF92E09093C3
:101330006F001092850010928400E82FF0E0EE0F0D
:10134000FF1FE650FF4F8591949190938900809301
:1013500088001092800010928100089588E940DB97
:101360008730D0F491E09093B501E82FF0E0EE5B88
:10137000FD4FE491209A289A84B1866084B923981D
:101380002B9A8DB5E6FF02C0816001C08E7F8DBDB6
:101390002098E065ECBD08951092B50194B1966077
:1013A00094B995B1996095B9C1CF8093DC0288E07A
:1013B0008093DB028091DC0287FF02C02A9A01C081
:1013C0002A9810928500109284008AE08093810010
:1013D0008091DB02882319F08AB58111F9CF109230
:1013E00081008091DC0208959091B501992329F044
:1013F0008EBD0DB407FEFDCF0895D7CF882339F0F9
:10140000249A8EE9EDDA811103C02C9A089524986C
:101410002C98089580EFE8DF80E0E6DF80E0E4DFED
:101420008091B501882331F01EBC0DB407FEFDCFBD
:101430008EB502C080E0B9DF80FF03C08AB581119C
:10144000E9CF8AB5882311F080E0089581E80895F6
:101450008DE4CADF80E0C8DF8091E002C5DF80E074
:10146000C3CF0F931F93CF93DF93EB01142F8E778E
:10147000E82FF0E0E830F10571F134F4E230F105E5
:1014800059F03497A9F029C0E032F10589F0E03431
:10149000F10509F1709709F5822FE3DD1EC00DB447
:1014A00007FEFDCF8EB5811312C08AB5882379F06F
:1014B000802F9ADF8D2F98DF8C2F96DF8091B501DA
:1014C000882311F01EBCEBCF80E06FDFECCF8AB534
:1014D000882329F002C09EDF03C080E001C080E8BD
:1014E00094E69ABDDF91CF911F910F910895CF920D
:1014F000DF92EF92FF920F931F93CF93DF937C01C4
:101500008B01EA0175D2811131C0209731F08881B9
:101510009981081B190BE80EF91EC12CD12C01155D
:10152000110519F18091E80085FD14C08091E80053
:101530008E778093E80077D4209741F08881998155
:101540008C0D9D1D9983888385E010C051D288231E
:1015500031F30CC0F70181917F018093F1000150BC
:101560001109FFEFCF1ADF0ADACF80E0DF91CF91C8
:101570001F910F91FF90EF90DF90CF900895CF9241
:10158000DF92EF92FF920F931F93CF93DF937C0133
:101590008B01EA012DD2811131C0209731F0888171
:1015A0009981081B190BE80EF91EC12CD12C0115CD
:1015B000110519F18091E80085FD14C08091E800C3
:1015C0008B778093E8002FD4209741F08881998110
:1015D0008C0D9D1D9983888385E010C009D28823D6
:1015E00031F30CC08091F100F70181937F0101502C
:1015F0001109FFEFCF1ADF0ADACF80E0DF91CF9138
:101600001F910F91FF90EF90DF90CF900895CF92B0
:10161000DF92EF92FF920F931F93CF93DF936C01B2
:101620008B017A01E5D1811138C0E8012197CC0DF9
:10163000DD1DE114F10439F0F70180819181081B6F
:10164000190BC81BD90BC12CD12C0115110521F187
:101650008091E80085FD16C08091E8008B7780932B
:10166000E800E1D3E114F10449F0F70180819181B0
:101670008C0D9D1D9183808385E00FC0B9D1882397
:1016800021F30BC08091F10088832197015011094B
:10169000FFEFCF1ADF0AD9CF80E0DF91CF911F9102
:1016A0000F91FF90EF90DF90CF9008952091EA0284
:1016B0003091EB022617370748F06115710539F4B0
:1016C0002091E8002E772093E80001C0B90120E0C6
:1016D00061157105C9F13EB3332309F442C03530B9
:1016E00009F441C03091E80033FD3FC03091E8007B
:1016F00032FF06C08091E80082FF29C080E0089593
:101700003091E80030FFE4CF2091F20030E0FC019E
:10171000281B390BCF01820F931F6115710549F00A
:101720008830910530F481918093F1006150710906
:10173000F1CF21E0089709F020E08091E8008E7752
:101740008093E800CF01C4CF2111C5CFD3CF8EB392
:10175000882339F0853039F08091E80083FFCACFC3
:1017600004C082E0089583E0089581E00895209107
:10177000EA023091EB022617370748F06115710530
:1017800039F42091E8002E772093E80001C0B901D8
:1017900020E061157105D1F13EB3332309F443C054
:1017A000353009F442C03091E80033FD40C030913B
:1017B000E80032FF06C08091E80082FF2AC080E086
:1017C00008953091E80030FFE4CF2091F20030E03E
:1017D000FC01281B390BC9018E0F9F1F6115710574
:1017E00051F08830910538F484918093F10031965E
:1017F00061507109F0CF21E0089709F020E0809155
:10180000E8008E778093E800CF01C3CF2111C4CFC9
:10181000D2CF8EB3882339F0853039F08091E8003B
:1018200083FFC9CF04C082E0089583E0089581E07A
:101830000895EF92FF920F931F93CF93DF938B0145
:101840002091EA023091EB022617370748F0611524
:10185000710539F42091E8002E772093E80001C04B
:10186000890120E001151105D9F13EB3332309F4B4
:1018700044C0353009F443C03091E80033FD41C025
:101880003091E80032FF06C08091E80082FF2BC053
:1018900080E038C03091E80030FFE4CFE090F20003
:1018A000F12CEC01E81AF90ACE018E0D9F1D0115ED
:1018B000110559F08830910540F4CE0158D4809339
:1018C000F100219601501109EFCF21E0089709F0AE
:1018D00020E08091E8008E778093E800CE01C2CFAF
:1018E0002111C3CFD1CF8EB3882339F0853039F0A1
:1018F0008091E80083FFC8CF04C082E003C083E08A
:1019000001C081E0DF91CF911F910F91FF90EF9087
:1019100008958F708093E900EBEEF0E080818160A4
:101920008083EDEEF0E010826093EC0040838091C4
:10193000EE00881F8827881F08950F931F93CF9369
:10194000DF93062FEC0110E0101769F198819923BD
:1019500039F12C81E981FA816B81892F8F70853073
:1019600010F080E021C0223010F056E001C052E0BB
:1019700028E030E040E02E173F0720F44F5F220FB1
:10198000331FF9CF4295407F452B991F9927991F07
:101990006295660F660F607C692BBBDF882309F3B5
:1019A0001F5F2596D1CF81E0DF91CF911F910F91DD
:1019B00008958091E40287FD05C08091E80080FFD2
:1019C0000DC010C08091E80082FD04C08EB381116B
:1019D000F9CF08958091E8008B7707C08EB381110D
:1019E000ECCF08958091E8008E778093E800089509
:1019F0008091E4009091E5004BEF2091EC0020FFF6
:101A000020C02091E80020FD20C02EB3222389F0C1
:101A1000253089F02091EB0025FD0FC02091E400D6
:101A20003091E5002817390741F3415041F0C901D1
:101A3000E4CF82E0089583E0089581E0089584E092
:101A400008952091E80022FFE0CF80E008953CD087
:101A50003ED08091D8008F778093D8008091D800B5
:101A600080688093D8008091D8008F7D8093D800C3
:101A700084E089BD86E089BD09B400FEFDCF1EBAB1
:101A80001092E20242E060E080E043DF8091E100FA
:101A90008E7F8093E1008091E20081608093E2007C
:101AA0008091E20088608093E2008091E0008E7F68
:101AB0008093E0000895E3E6F0E080818E7F8083EC
:101AC00081E08093E302C3CF1092E2000895109268
:101AD000E10008951F920F920FB60F9211242F93D9
:101AE0003F934F935F936F937F938F939F93AF93A6
:101AF000BF93EF93FF938091E10080FF17C0809127
:101B0000E20080FF13C08091E2008E7F8093E200AC
:101B10008091E20080618093E2008091D800806231
:101B20008093D80019BC1EBA0E945E028091E10029
:101B300084FF2FC08091E20084FF2BC084E089BD28
:101B400086E089BD09B400FEFDCF8091D8008F7D6D
:101B50008093D8008091E1008F7E8093E100809196
:101B6000E2008F7E8093E2008091E20081608093AA
:101B7000E2008091E202882311F084E007C08091A6
:101B8000E30087FF02C083E001C081E08EBB0E94BA
:101B90005C028091E10083FF21C08091E20083FF1D
:101BA0001DC08091E100877F8093E10082E08EBBC1
:101BB0001092E2028091E1008E7F8093E10080919B
:101BC000E2008E7F8093E2008091E200806180934A
:101BD000E20042E060E080E09CDE24D1FF91EF91E2
:101BE000BF91AF919F918F917F916F915F914F9135
:101BF0003F912F910F900FBE0F901F9018951F933C
:101C0000CF93DF9300D01F92CDB7DEB7E4EEF2E0C2
:101C10008091F100819382E0EC3EF807C9F70E94C1
:101C20008E028091E80083FFE8C09091E4028091E9
:101C3000E502853009F465C030F4813059F168F06F
:101C4000833041F1DAC0883009F4A9C0893009F441
:101C5000B8C0863009F0D1C075C0903881F0923894
:101C600009F0CBC08091E8028F708093E9009091D9
:101C7000EB0095FB992790F91092E90001C090E0E4
:101C80008091E800877F8093E8009093F1001092A4
:101C9000F10090C0292F2D7F09F0AFC0923009F0DC
:101CA000ACC09091E602911126C02091E8022F70FD
:101CB00009F4A3C02093E9009091EB0090FF1BC0B2
:101CC000833021F48091EB00806213C08091EB009F
:101CD00080618093EB0081E090E0022E01C0880FCC
:101CE0000A94EAF78093EA001092EA008091EB00F0
:101CF00088608093EB001092E9008091E800877F74
:101D00005CC091117AC01091E6021F778091E300C8
:101D10008078812B8093E3008091E800877F809317
:101D2000E80047DE8091E80080FFFCCF8091E3006F
:101D300080688093E300112311F083E001C082E00A
:101D40008EBB5BC09058923008F057C09E012D5F4B
:101D50003F4FAE014F5F5F4F6091E8028091E60216
:101D60009091E7020E941303BC01009709F445C05B
:101D70008091E800877F8093E8002B8189819A8198
:101D8000211102C0F4DC05C0213011F452DD01C084
:101D90008DDC8091E8008B778093E8002EC090382E
:101DA00061F58091E800877F8093E8008091E202EE
:101DB0008093F1008091E8008E778093E800F9DD50
:101DC0001CC091111AC09091E6029330B0F480913A
:101DD000E800877F8093E8009093E202EADD80913B
:101DE000E202811104C08091E30087FF02C084E019
:101DF00001C081E08EBB0E9460028091E80083FFF9
:101E00000AC08091E800877F8093E8008091EB0012
:101E100080628093EB000F900F900F90DF91CF9135
:101E20001F9108950895CF938EB38823A9F08091D0
:101E3000E9008F709091EC0090FF02C090E801C023
:101E400090E0C92FC82B1092E9008091E80083FD33
:101E5000D6DECF70C093E900CF910895CF93DF9382
:101E6000EC01FC0170968BE0DF011D928A95E9F789
:101E700082E08C83898783E08E8761E0CE010196C2
:101E80005CDD882361F061E0CE01069656DD882393
:101E900031F061E0CE010B96DF91CF914ECD80E025
:101EA000DF91CF910895CF93C62F2EB32430F1F454
:101EB000FC014489558966897789452B462B472B38
:101EC000A9F081818F708093E9008091E80085FFFF
:101ED00004C0C093F10080E00AC08091E8008E77D2
:101EE0008093E80085DD8823A1F301C082E0CF91D3
:101EF00008952EB3243021F5FC0144895589668963
:101F00007789452B462B472BD9F081818F708093A1
:101F1000E9008091F200882389F09091E800809197
:101F2000E8008E778093E80095FD08C061DD81119F
:101F300008C08091E8008E778093E80080E00895E3
:101F400082E008952EB3243089F4FC014489558938
:101F500066897789452B462B472B41F021812F70CD
:101F60002093E9002091E80020FDC3CF08952EB30F
:101F7000243019F08FEF9FEF0895FC0144895589B3
:101F800066897789452B462B472BA1F386818F7075
:101F90008093E9008091E80082FFECCF8091F2000D
:101FA000882321F02091F10030E002C02FEF3FEFB5
:101FB0008091F200811105C08091E8008B778093B9
:101FC000E800C90108950895CF93DF93EC01809153
:101FD000E80083FFA7C0888190E02091E80230915B
:101FE000E9022817390709F09DC08091E502813286
:101FF00061F020F4803209F43EC094C0823209F4CA
:102000006CC0833209F47EC08DC08091E402813AB5
:1020100009F088C08091E800877F8093E800809174
:10202000E80080FFFCCF4C895D896E897F894093F1
:10203000F100BB27A72F962F852F8093F100CB01AE
:10204000AA27BB278093F100472F552766277727BC
:102050004093F100888D8093F100898D8093F10089
:102060008A8D8093F1008091E8008E778093E8005C
:10207000DF91CF919ECC8091E402813209F052C071
:102080008091E800877F8093E8008091E80082FDDE
:1020900004C08EB38111F9CF45C03091F100209179
:1020A000F1009091F1008091F1003C8B2D8B9E8B83
:1020B0008F8B8091F100888F8091F100898F8091C2
:1020C000F1008A8F8091E8008B778093E80071DCC3
:1020D000CE01DF91CF910C94CF028091E402813246
:1020E00009F58091E800877F8093E80062DC8091A9
:1020F000E6029091E702998B888BCE01DF91CF9118
:102100000C9486028091E402813261F48091E800AF
:10211000877F8093E8004DDC6091E602CE01DF917D
:10212000CF9151CFDF91CF910895A1E21A2EAA1B32
:10213000BB1BFD010DC0AA1FBB1FEE1FFF1FA21777
:10214000B307E407F50720F0A21BB30BE40BF50B74
:10215000661F771F881F991F1A9469F760957095FD
:10216000809590959B01AC01BD01CF010895F9992F
:10217000FECF92BD81BDF89A992780B50895262F8C
:10218000F999FECF92BD81BDF89A019700B402166D
:1021900039F01FBA20BD0FB6F894FA9AF99A0FBE1B
:0621A0000895F894FFCF42
:1021A60000831000000104100000018208000001F5
:1021B60000000000000000000000001C033000309A
:1021C6000030003200300030003000310032003381
:1021D6000034003500000000000902200001010063
:1021E600C0320904000002FF000000070582024019
:1021F600000A0705020240000A09023E0002010029
:10220600C032090400000102020100052400100189
:10221600042402060524060001070582030800FFC0
:1022260009040100020A0000000705040210000567
:10223600070583021000058001008101009001005E
:102246009101019201189401219803069E0301A1B0
:102256000100A40300014156524953505F4D4B32D1
:02226600000076
:00000001FF
