:100000003FC1000067C1000065C1000063C100007E
:1000100061C100005FC100005DC100005BC1000064
:1000200059C1000057C1000055C100000C942B15A8
:1000300051C100004FC100004DC100000C94210AC5
:1000400049C1000047C1000045C100001AC40000BA
:1000500041C100003FC100003DC10000E2C20000FC
:1000600039C1000037C1000035C1000033C10000B4
:1000700031C100001C03300030003000320032007B
:10008000300031003400300036003100360000000E
:1000900000001C033000300030003200320030001D
:1000A000310034003000360031003600000000001E
:1000B0001803410056005200490053005000200030
:1000C0006D006B004900490000000C034100540022
:1000D0004D0045004C0000000403090424036100A6
:1000E00054006500560061004C002000550053008C
:1000F00042003200530065007200690061006C002C
:10010000000012036500480061004A006F002E00E5
:1001100064006500000004030904120110010200DC
:100120000010EB034B20010001020001120110013D
:10013000FF000010EB030421000201020301404014
:1001400000410142430400040004000500050006CC
:100150000006000600070007000700080009000964
:100160000009000A000A000B000C000C000D000E34
:10017000000F000F001000110012001300140015F2
:100180000016001700180019001B001C001E001F9D
:1001900000210022002400260028002A002C002E26
:1001A0000031003300360039003B003E004100457D
:1001B0000048004C004F00540058005C006100658E
:1001C000006A00700075007B00810088008E009638
:1001D000009D00A500AD00B500BE00C800D200DC47
:1001E00000E700F200FE000A011801250134014376
:1001F0000153016401760188019B01AF01C501DB58
:1002000001F3010B02250240025C027A029902BA54
:1002100002DC02000326034E037703A303D103018C
:1002200004320467049F04DA04150555059705E1B7
:100230000528067606C7061F077A07D7073308A3DF
:100240000809097A09F609700AF70A7C0B0D0CAD4A
:100250000C480DF20D920E410F0110D51097119818
:1002600012871378147B158C16A417D018091A500E
:100270001BA21C0B1E8C1F1921AF226F24372600D6
:1002800011241FBECFEFD4E0DEBFCDBF24B784B7AB
:1002900091E0883009F090E081E0223009F080E0C0
:1002A000892B80930D0314BE11E0A0E0B1E0E6E4D9
:1002B000F1E302C005900D92A03EB107D9F713E01B
:1002C000A0EEB1E001C01D92AD30B107E1F770D1F1
:1002D0000C94A11895CE95B19F71982B95B908955E
:1002E000FC01A081B1816C93808191810196918301
:1002F0008083268137818217930721F48481958139
:10030000918380832FB7F894828593850196938794
:1003100082872FBF0895FC01A281B3818D91B383A1
:10032000A28326813781A217B30721F42481358166
:10033000338322839FB7F894228533852150310976
:10034000338722879FBF0895FC012FB7F8947183EC
:100350006083738362837583648360587F4F778380
:10036000668380E890E091878087138612862FBF8E
:1003700008951F93CF93DF938FB7F8942091EB01EB
:100380003091EC018FBF8091E9019091EA0128172B
:10039000390759F080E091E00E94871797FD05C06A
:1003A000682F81EE91E09CDF2E9A2FB7F894809110
:1003B0007702909178022FBF009751F42FB7F894ED
:1003C0008091EB019091EC012FBF892B79F124C032
:1003D000209101012F702093E9002091E80020FF77
:1003E000EDCF8031910510F08FE090E0182FC0E044
:1003F000D0E00FC0E0916F02F0917002608180E068
:1004000091E00E94221721968111D8CF8DE692E0CB
:1004100082DF1C13EFCFD2CF81EE91E07CDF909191
:10042000C80095FFFCCF8093CE002E9A80E091E02B
:100430000E9472172E98DF91CF911F91089588E145
:100440000FB6F89480936000109260000FBE509831
:10045000589A87B18B7D87B988B1846288B93C9AF4
:10046000449890E080E80FB6F894809361009093F0
:1004700061000FBE84B1806E84B985B18F7185B97A
:1004800089B1809581708093E001811197D10C949E
:100490001C1580EC20CF80E41ECFCF938091E0012B
:1004A000811114C080E091E00E94FD16C82F40E841
:1004B00050E06DEE71E081EE91E046DF40E850E003
:1004C00069E772E08DE692E03FDF18C042E360E842
:1004D00082E00E944714C82F6091FC02862F8F7023
:1004E000823061F0853040F4661F6627661F6068C1
:1004F00042E30E94471401C080E0C823CC2311F0DE
:1005000080E801C080E4CF91E6CECF93FC01A18DBD
:10051000A150A23028F4B0E0A056BE4FCC9101C04B
:10052000C0E0808D823009F4C860828D873031F060
:10053000883031F0863029F4C26003C0C46001C045
:10054000C6601092C9001092C8001092CA00248997
:10055000358946895789CA01B90196958795779556
:100560006795605C7D4B804F9F4F0E9465182150BE
:1005700031093093CD002093CC00C093CA0082E0B3
:100580008093C80088E98093C900CF9108958EB305
:10059000843069F4DED282E08093E9008091E80043
:1005A00082FF05C080EC97DE89D180E894CE089563
:1005B00046DF8091E001811102C078D10EC040E891
:1005C00050E06DEE71E081EE91E0BEDE40E850E07B
:1005D00069E772E08DE692E0B7DE80E47CDE789435
:1005E0008091E001811102C0C4DE0FC032990CC0BD
:1005F0002CE088E190E00FB6F894A8958093600015
:100600000FBE20936000FFCFC2DF0E94E216E8CF4A
:100610008091E001811104C080E091E00C94B41756
:1006200008951F920F920FB60F9211242F933F93AC
:100630004F935F936F937F938F939F93AF93BF93EA
:10064000EF93FF936091CE008EB3843019F48DE662
:1006500092E046DEFF91EF91BF91AF919F918F9114
:100660007F916F915F914F913F912F910F900FBEAE
:100670000F901F9018957091E001711101C05CC03E
:1006800000C0F9011082292F33272230310541F0B3
:100690002330310581F02130310509F43FC043C0DA
:1006A00082E080838091FC0280936D01E0E2F0E0C3
:1006B00089E591E03CC099278130910589F01CF4CF
:1006C000892B39F030C08230910589F0039759F5B4
:1006D00015C0E8EDF0E0E491F0E088ED90E027C08F
:1006E000EAECF0E0E491F0E08AEC90E020C0E0EB8E
:1006F000F0E0E491F0E080EB90E019C08091FC0222
:100700008F7090E0C0969093A1008093A00082E04B
:100710008083ECE1F0E082E990E009C0E2E1F0E002
:100720008CE291E004C0E0E0F0E080E090E0DA01EB
:100730008D939C93CF010895D9011C92692F77273F
:100740006230710539F06330710561F06130710517
:1007500039F12BC082E0F9018083EEE3F0E08BE118
:1007600091E027C099278130910561F08230910591
:1007700081F0892BD1F4E6E1F1E0E491F0E086E14B
:1007800091E017C0E2E0F1E0E491F0E082E091E076
:1007900010C0ECEDF0E0E491F0E08CED90E009C0E9
:1007A000E2E1F0E08AE191E004C0E0E0F0E080E026
:1007B00090E0DA018D939C93CF01089580E090E062
:1007C0000E9487188093FC0290910D03992359F0A1
:1007D000833811F462E801C063E86093FC0280E0B2
:1007E00090E00E948F1885B18F7185B98091FC02CD
:1007F000823829F0833869F182E88093FC0280EE28
:1008000083B92FEF31EE44E0215030404040E1F712
:1008100000C0000083B99FEF21EE34E091502040EA
:100820003040E1F700C0000083B94FEF91EE24E0C3
:10083000415090402040E1F700C0000083B93FEFF5
:1008400041EE84E0315040408040E1F700C00000BC
:100850000EC088E090EE93B92FEF31EE44E02150C6
:1008600030404040E1F700C000008150A1F78FE721
:100870009FE422E1815090402040E1F700C0000059
:10088000089578941F920F920FB60F9211248F93B0
:100890008AB5882321F08AB581508ABD01C015BC74
:1008A0008F910F900FBE0F901F9018958DE487BD0C
:1008B00082E084BD80936E0031D1F1C50F931F9308
:1008C000CF93DF931F92CDB7DEB71091F10084E68E
:1008D0008ABD85E085BD143109F4CCC000F51A301D
:1008E00009F4ADC068F4143038F4123008F052C086
:1008F000113009F0D7C02FC0163009F0D3C077C02F
:10090000113109F4B2C020F4103109F0CBC0ABC0F2
:10091000123109F4B2C0133109F0C4C0A8C01931B2
:1009200009F4B0C060F4163109F4A4C008F49FC003
:10093000173109F4A7C0183109F0B4C0A0C01D31A7
:1009400009F4A3C008F49BC0103509F4A2C0113506
:1009500009F0A8C09CC08091E8008B778093E800E4
:100960008091FC028F708093E9008091EC0081609F
:100970008093EC001093F1001092F1008AE08093D4
:10098000F10040E050E06AE070E084ED91E00E9408
:100990002A12A0C00091F100123011F46091F10010
:1009A0008091E8008B778093E8008091FC028F7043
:1009B0008093E9008091EC0081608093EC001093BB
:1009C000F100802F6983C6D06981123039F481FF2C
:1009D0000CC01092F100802FCDD07CC080FF05C0EC
:1009E0001092F100802FBED073C080EC71C040E047
:1009F00050E064E070E08EEF92E00E94C6128091B9
:100A0000E8008B778093E8008091FC028F708093E0
:100A1000E9008091EC0081608093EC008091FE02FF
:100A20009091FF02A0910003B0910103B7FF03C0B2
:100A300081E08093FD0286E08093F10011C08091F7
:100A4000E8008B778093E8008091FC028F708093A0
:100A5000E9008091EC0081608093EC001093F1003C
:100A60001092F10037C067D43AC02FD438C0812F1C
:100A7000C4D035C0812F01D232C0D8D330C0812F2D
:100A80009CD22DC0812FF6D22AC03CD328C050D78B
:100A900026C080D724C08091E8008B778093E8003F
:100AA0000E94B8148091F2008034A9F38091E8008C
:100AB0008B778093E8008091FC028F708093E9002F
:100AC0008091EC0081608093EC001093F10089EC40
:100AD0008093F1008091E8008E778093E80015BC48
:100AE0000E94B81482E08093E9008091EC008E7F30
:100AF0008093EC000F90DF91CF911F910F9108959B
:100B0000E9E7F1E09081891739F0339691E0E73910
:100B1000F907C1F7E0E0F0E0CF010895CF93DF934C
:100B200081E090E00E948718D82F82E090E00E9438
:100B30008718C82FDF3F21F08EE9E2DFFC01D28366
:100B4000CF3F21F088E9DCDFFC01C283DF91CF9148
:100B500008950895D5DF009719F0FC01818108956B
:100B600080E00895CDDF009719F0FC01828108959F
:100B700080E008951F93CF93DF931F92CDB7DEB728
:100B8000182F6983BDDF6981009789F0FC016283BA
:100B90001E3919F481E090E004C0183941F482E074
:100BA00090E00F90DF91CF911F910C948F180F90D0
:100BB000DF91CF911F91089590919701992329F08A
:100BC0008EBD0DB407FEFDCF0895CEC49091970160
:100BD000992331F08EBD0DB407FEFDCF8EB508957B
:100BE000C3C480919701882331F01EBC0DB407FE69
:100BF000FDCF8EB5089580E0B7C45F926F927F926B
:100C00008F929F92AF92BF92CF92DF92EF92FF921C
:100C10000F931F93CF93DF93CDB7DEB7CA50D14068
:100C20000FB6F894DEBF0FBECDBF182F40E050E0E6
:100C300069E070E0CE0101960E9478126A817981A4
:100C40007A836983613081E0780798F08091E800C9
:100C50008B778093E8008091FC028F708093E9008D
:100C60008091EC0081608093EC001093F10080ECA7
:100C7000E6C040E050E0CE010A960E9478128981D9
:100C80009A810A968F739927892B39F48091E8000D
:100C90008B778093E8000E94B8148091E8008B77EE
:100CA0008093E8008091FC028F708093E90080912E
:100CB000EC0081608093EC00133111F4988401C042
:100CC00099848090FE027090FF02C12CD12C5E01AD
:100CD000EAE0AE0EB11CE12CF12C88E0682E552420
:100CE000539477C0F50101915F019B818091FD02D2
:100CF000882369F0C65FDE4F9883CA50D14087D4FD
:100D00001092FD02C65FDE4F9881CA50D1408D819E
:100D1000C65FDE4F9883CA50D1404EDF8091FF02FC
:100D20004BDF8091FE0248DF802F46DFC65FDE4F3B
:100D30009881CA50D140133119F42D8126252D8375
:100D4000E114F10479F4091569F08F81C0FE04C043
:100D5000133111F4886001C0877F8F83E090FE0219
:100D6000F090FF0290FD11C0E114F10421F493FD15
:100D700002C0997F92600F812C81492DB701892F84
:100D80004FD481112DC0E12CF12CC0FC02C01531D3
:100D9000E9F48091FE029091FF02A0910003B091CE
:100DA00001030196A11DB11D8093FE029093FF02E5
:100DB000A0930003B0930103133141F4AA27BB278A
:100DC000892B8A2B8B2B11F45092FD02FFEFCF1A47
:100DD000DF0A89819A81C816D90608F483CF80E09A
:100DE0009B8197FF2AC08E81E7DE872DE5DE882D67
:100DF000E3DE80E0E1DE8B8185FF06C0E114F104D3
:100E000019F48F7C80618B830F812C81492DB70170
:100E10008B8106D4133189F44091FE025091FF0278
:100E2000609100037091010366277727452B462BBD
:100E3000472B19F491E09093FD021093F1008093F9
:100E4000F1008091E8008E778093E800C65FDE4F66
:100E50000FB6F894DEBF0FBECDBFDF91CF911F91CB
:100E60000F91FF90EF90DF90CF90BF90AF909F9049
:100E70008F907F906F905F900895DF92EF92FF9236
:100E80000F931F93CF93DF9300D01F92CDB7DEB7A0
:100E9000F82E40E050E063E070E0CE0101960E9441
:100EA000781289819A8199838A838091E8008B776F
:100EB0008093E8008091FC028F708093E90080911C
:100EC000EC0081608093EC00F092F1001092F10050
:100ED00000E010E098E0E92EDD24D39449C0809131
:100EE000FD02882319F093D31092FD028B8164DEFA
:100EF0008091FF0261DE8091FE025EDE72DE8093F1
:100F0000F1008091E80085FD07C08091E8008E77B0
:100F10008093E8000E94B81484E1F81203C08B812A
:100F20008E258B8300FD03C086E1F8121FC040911F
:100F3000FE025091FF0260910003709101034F5F28
:100F40005F4F6F4F7F4F4093FE025093FF026093BD
:100F500000037093010386E1F81641F066277727B6
:100F6000452B462B472B11F4D092FD020F5F1F4FEC
:100F700029813A810217130708F4B1CF1092F100CA
:100F80009091E8008091E8008E778093E80095FDCD
:100F900009C00E94B8148091E8008E778093E80021
:100FA0000E94B8140F900F900F90DF91CF911F9176
:100FB0000F91FF90EF90DF900895BF92CF92DF9254
:100FC000EF92FF920F931F93CF93DF93CDB7DEB7CE
:100FD00029970FB6F894DEBF0FBECDBFB82E40E004
:100FE00050E065E070E0CE0101960E947812909189
:100FF000E8009B779093E8009091FC029F7090939B
:10100000E9009091EC0091609093EC008E010E5FEE
:101010001F4F7E0186E0E80EF11C6701F801819107
:101020008F01D4DDF70181937F010C151D05B1F708
:10103000B092F1001092F1008981FE01E80FF11DDC
:1010400085818093F1001092F1008091E8008E7705
:101050008093E80029960FB6F894DEBF0FBECDBF8F
:10106000DF91CF911F910F91FF90EF90DF90CF9084
:10107000BF900895DF92EF92FF920F931F93CF934B
:10108000DF9300D000D0CDB7DEB7D82E40E050E0DF
:1010900064E070E0CE0101960E9478129091E80021
:1010A0009B779093E8009091FC029F709093E900E9
:1010B0009091EC0091609093EC008E010F5F1F4FB8
:1010C0007E0185E0E80EF11CF80181918F0174DD4D
:1010D0000E151F05C9F7D092F1001092F100109281
:1010E000F1008091E8008E778093E8000F900F90D8
:1010F0000F900F90DF91CF911F910F91FF90EF9084
:10110000DF900895FF920F931F93CF93DF93CDB796
:10111000DEB7C250D1400FB6F894DEBF0FBECDBFD0
:1011200040E050E063E070E0CE0101960E9478124A
:1011300069818E010C5F1F4F40E050E070E0C801F4
:101140000E9478128091E8008B778093E80080916C
:10115000FC028F708093E9008091EC0081608093A5
:10116000EC008DE18093F1001092F100F12C0BC0A6
:101170008981F81628F4F801EF0DF11D808101C076
:1011800080E01ADDF3948B81F81690F310E01CC018
:101190008981F81650F4E4E0F0E0EC0FFD1FEF0D4C
:1011A000F11DF394808112DD01C01BDD8093F100FD
:1011B0008091E80085FD07C08091E8008E778093DC
:1011C000E8000E94B8141F5F8A81181708F3109274
:1011D000F1009091E8008091E8008E778093E8001C
:1011E00095FD09C00E94B8148091E8008E77809325
:1011F000E8000E94B814CE5FDE4F0FB6F894DEBF51
:101200000FBECDBFDF91CF911F910F91FF90089539
:1012100006C0EFECF7E03197F1F700C0000088233B
:1012200021F09AB581509111F4CF0895EF92FF9279
:101230000F931F93CF93DF9300D000D000D0CDB792
:10124000DEB740E050E066E070E0CE0101960E941B
:1012500078128091E8008B778093E8008091FC02FF
:101260008F708093E9008091EC0081608093EC00A6
:101270008E010D5F1F4F7E0187E0E80EF11CF80123
:1012800081918F0199DC0E151F05C9F78A818111A3
:1012900004C08981BDDF80E001C09BD192E19093C1
:1012A000F1008093F1008091E8008E778093E80050
:1012B00026960FB6F894DEBF0FBECDBFDF91CF915B
:1012C0001F910F91FF90EF9008950F931F93CF936D
:1012D000DF9300D0CDB7DEB740E050E062E070E0D1
:1012E000CE0101960E94781208EE10E0F80180818C
:1012F0008B7780838091FC028F708093E900ECEE05
:10130000F0E0808181608083898182DF80E055D137
:10131000D8D08A817DDFE1EFF0E081E18083108227
:10132000F80180818E7780830F900F90DF91CF91AD
:101330001F910F910895CF92DF92EF92FF920F933A
:101340001F93CF93DF93CDB7DEB72F970FB6F894E7
:10135000DEBF0FBECDBF40E050E06BE070E0CE01DD
:1013600001960E9478128091E8008B778093E800C4
:101370008091FC028F708093E9008091EC00816085
:101380008093EC001092FE021092FF021092000374
:10139000109201038B813CDFC0D081E00ED18A81A5
:1013A00037DF7E018CE0E80EF11C23C08D8130DF39
:1013B000F80181918F010ADCF60181936F010E150E
:1013C0001F05A1F78F81882351F0EBE0F0E0EC0FCF
:1013D000FD1FE80FF11D90818E81981302C080E0FF
:1013E00017C080E0EAD08A8113DF81E0E6D08A81ED
:1013F0000FDF8C81982F91509C83882341F08AB510
:10140000882329F08E01085F1F4F6701CFCF80EC42
:1014100090E19093F1008093F1008091E8008E7745
:101420008093E8002F960FB6F894DEBF0FBECDBFB5
:10143000DF91CF911F910F91FF90EF90DF90CF90B0
:1014400008951F920F920FB60F9211248F9319993E
:1014500008C08091FA0287FF02C02A9A19C02A9810
:1014600017C08091FA02880F8093FA028091F902E6
:1014700081508093F902811104C01092810082E0B2
:1014800086BB1B9B05C08091FA0281608093FA02A3
:10149000199A8F910F900FBE0F901F9018953E9A3A
:1014A00010926F00109285001092840010928900B3
:1014B0001092880080E48093800089E0809381000E
:1014C000089580919701882349F084B1897F84B978
:1014D00085B1867F85B91CBC1DBC089584B1897F08
:1014E00084B985B1867F85B9DACF92E090936F0099
:1014F0001092850010928400E82FF0E0EE0FFF1F9D
:10150000E95CFE4F859194919093890080938800C7
:101510001092800010928100089588E923DB8730C3
:10152000D0F491E090939701E82FF0E0E25CFE4F59
:10153000E491209A289A84B1866084B923982B9AE2
:101540008DB5E6FF02C0816001C08E7F8DBD209801
:10155000E065ECBD08951092970194B1966094B93E
:1015600095B1996095B9C1CF8093FA0288E08093D4
:10157000F9028091FA0287FF02C02A9A01C02A98D4
:1015800010928500109284008AE0809381008091FF
:10159000F902882319F08AB58111F9CF10928100E0
:1015A0008091FA02089590919701992329F08EBDB8
:1015B0000DB407FEFDCF0895D7CF882339F0249AC4
:1015C0008EE9D0DA811103C02C9A089524982C98C2
:1015D000089580EFE8DF80E0E6DF80E0E4DF8091DF
:1015E0009701882331F01EBC0DB407FEFDCF8EB5E8
:1015F00002C080E0B9DF80FF03C08AB58111E9CF66
:101600008AB5882311F080E0089581E808958DE47B
:10161000CADF80E0C8DF80910003C5DF80E0C3CF70
:101620000F931F93CF93DF93EB01142F8E77E82F47
:10163000F0E0E830F10569F134F4E230F10559F0F9
:10164000349749F50BC0E032F10541F0E034F10583
:1016500001F1709701F5822FDBDD1DC0802FA3DF24
:101660008D2FA1DF8C2F9FDF80919701882331F090
:101670001EBC0DB407FEFDCF8EB502C080E074DF46
:10168000811303C08AB58111E9CF8AB5882329F077
:1016900002C09FDF03C080E001C080E894E69ABDED
:1016A000DF91CF911F910F9108959B01692F782FA2
:1016B000832F922F0895CF93DF93CDB7DEB7C75016
:1016C000D1400FB6F894DEBF0FBECDBF40E050E072
:1016D00067E070E0CE018F5F9E4F0AD7CE5FDE4F8E
:1016E000688179818A819B81C250D140DEDFCE5FE3
:1016F000DE4F688379838A839B83C250D140CA5F5F
:10170000DE4F8881C650D140C95FDE4F9881C750F7
:10171000D140CA5FDE4F9883C650D140C95FDE4FCB
:101720008883C750D1408091E8008B778093E80090
:101730008091FC028F708093E9008091EC008160C1
:101740008093EC008091FB02CA5FDE4F28813981D3
:10175000C650D140811112C0CE5FDE4F68817981C1
:101760008A819B81C250D140AE014F5F5F4FF7D35A
:10177000882311F080E00EC083E00CC0A901BE01F7
:101780006F5F7F4FCE5FDE4F88819981C250D1401D
:10179000E0D5EECF90E59093F10095E09093F100C5
:1017A0008093F10081110BC0CA5FDE4F688179819F
:1017B000C650D14040E050E0CE0101964BD680911A
:1017C000E8008E778093E800C95FDE4F0FB6F8948B
:1017D000DEBF0FBECDBFDF91CF910895AF92BF9214
:1017E000CF92DF92EF92FF920F931F93CF93DF93ED
:1017F000CDB7DEB7C850D1400FB6F894DEBF0FBEEC
:10180000CDBF40E050E068E070E0CE01019670D6B8
:101810006B817C818D819E8148DF6B837C838D838E
:101820009E837F8168856F83788740E050E0CE019A
:1018300009965ED68F81988509968F739927892B93
:1018400039F48091E8008B778093E8000E94B81407
:101850008091E8008B778093E8008091FC028F7084
:101860008093E9008091EC0081608093EC0080918E
:10187000FB0281112EC029812150EB80FC800D815B
:101880001E812630A0F430E0F901E655FE4F80813C
:10189000F901E055FE4F9081F901EA54FE4F608155
:1018A000F901E454FE4F2081222359F103C066E27E
:1018B00093E28EE2AF80B88429E0C22ED12CCC0E08
:1018C000DD1E2A81482F892FBDD381110BC083E0F3
:1018D0000AC04F815885BE01675F7F4F8B819C8115
:1018E00064D5F3CF80E090E59093F10094E090937D
:1018F000F1008093F1008091E8008E778093E800FA
:1019000005C02985B801A7016FD3DFCFC85FDE4FBF
:101910000FB6F894DEBF0FBECDBFDF91CF911F9100
:101920000F91FF90EF90DF90CF90BF90AF90089510
:10193000CF93DF931F92CDB7DEB740E050E061E078
:1019400070E0CE010196D4D58091E8008B7780932A
:10195000E8008091FC028F708093E9008091EC0098
:1019600081608093EC0089818093FB0281E5809304
:10197000F1008981813011F080E001C080EC80931A
:10198000F1008091E8008E778093E8000F90DF915E
:10199000CF910895CF93DF93CDB7DEB729970FB6D8
:1019A000F894DEBF0FBECDBF8091F100843009F402
:1019B00099C040F4823089F108F04EC0813009F0BE
:1019C00036C109C0863009F491C008F48DC0873053
:1019D00009F02DC1D6C08091E8008B778093E80094
:1019E0008091FC028F708093E9008091EC0081600F
:1019F0008093EC008091FB02811102C026D205C0C9
:101A0000823011F458D401C080E090E59093F10049
:101A100091E09093F100892703C18091E8008B77D2
:101A20008093E8008091FC028F708093E9008091A0
:101A3000EC0081608093EC008091FB02811102C078
:101A40004BD201C07BD480E58093F10082E080938B
:101A5000F1001092F100E6C040E050E065E070E077
:101A6000CE01019645D56A817B818C819D811DDEE9
:101A70006A837B838C839D838091E8008B7780933E
:101A8000E8008091FC028F708093E9008091EC0067
:101A900081608093EC008091FB02E981811114C088
:101AA000E150E83028F4F0E0EE55FE4F808101C0AF
:101AB00080E04A815B816C817D8139D3882311F07C
:101AC00080E00BC083E009C0E13011F480E101C087
:101AD00084E16A817B81A1D4F1CF90E59093F100FC
:101AE00093E09CC07BDEA3C0E6DDA1C040E050E0F7
:101AF00061E070E0CE010196FBD48091E8008B7725
:101B00008093E8008091FC028F708093E9008091BF
:101B1000EC0081608093EC008091FB02811112C087
:101B2000E981E150E23028F4F0E0EE53FE4F80818D
:101B300001C088E7BE016A5F7F4FD9D1882321F0B9
:101B400080E003C081E001C083E090E59093F10064
:101B500096E09093F1008093F100811163C08E8133
:101B60009F81A885B985CD01AA27BB278093F10065
:101B70008E819F81A885B9858093F100892F99274F
:101B80004FC08091F100833029F128F4813041F079
:101B9000823081F516C0843011F1853059F524C0AA
:101BA0008091F1009091F1002091F1003091F100CD
:101BB00030939C0120939D0190939E0180939F01FF
:101BC00017C08091F1009091F10090939A01809359
:101BD0009B010EC08091F1008093990109C0809112
:101BE000F1008093980104C08091F1008091F10090
:101BF00080E001C081E09091E8009B779093E8003D
:101C00009091FC029F709093E9009091EC0091609C
:101C10009093EC0090E59093F10097E09093F100A1
:101C20008093F1008091E8008E778093E8002996F8
:101C30000FB6F894DEBF0FBECDBFDF91CF910895F0
:101C40004D99FECF4D9BFECF4D99FECF5B9A539A97
:101C50008091C9008F7E8093C9008091C9008860FF
:101C60008093C90081E08093020308958091C800A9
:101C700086FFFCCF8091C80080648093C80080916B
:101C8000C900877F8093C9008091C90080618093DB
:101C9000C90053985B981092020308958091020343
:101CA0008111E4DF80EC8093C8001092C90010928B
:101CB000CA008AB1877D8AB98BB1837D8BB90895BB
:101CC000809102038111D2DF8091C800806C8093E3
:101CD000C8001092C9001092CA008AB1877D8AB9E3
:101CE0008BB1837D8BB924982C980895CF93DF9383
:101CF0001F92CDB7DEB790910203911103C0898383
:101D00009FDF89819091C80095FFFCCF9091C8001A
:101D100090649093C8008093CE000F90DF91CF9194
:101D20000895809102038111A1DF8091C80087FD91
:101D300003C08AB58111F9CF8091CE0008958091BA
:101D40000203811101C07CDF8CE04D99FECF4D9BD9
:101D5000FECF4D99FECF8150C1F708951092020336
:101D6000249A2C9887EC90E00197F1F700C00000CE
:101D70008AB188628AB9529881E090E09093CD0050
:101D80008093CC0088E08093C9008FE68093CA00DE
:101D9000D6DFD5CF109202038AB188628AB95298F1
:101DA0005B9A87EC90E00197F1F700C0000081E0BA
:101DB00090E09093CD008093CC0088E08093C900A0
:101DC0008FE68093CA00BBDFBACF1F93CF93DF9318
:101DD00000D0CDB7DEB7182F862F79839A8386DFA0
:101DE0007981872F83DF812F81DF9A81892F0F905F
:101DF0000F90DF91CF911F9179CF40919C0150912D
:101E00009D0160919E0170919F01482BCB01BA0109
:101E1000DCCF80E86BDF85DF9AB5992321F081FF65
:101E2000F8CF81E0089580E008958BE65FDF8FE0D2
:101E3000E4DF80E25BDF75DF9AB5992321F087FD4F
:101E4000F8CF81E0089580E00895BF92CF92DF92AD
:101E5000EF92FF920F931F93CF93DF93CDB7DEB72F
:101E600028970FB6F894DEBF0FBECDBF93DF81EC8D
:101E70003DDF89E53BDF82EC39DF82E037DF80EE52
:101E800035DF7E0189E0E80EF11C8E010F5F1F4FE8
:101E900088E0D82EB02EC12EE4ECF1E0AB2DBC2DA5
:101EA0008D2D01900D928A95E1F7F70182917F01C6
:101EB0001DDFE016F10681F728960FB6F894DEBF15
:101EC0000FBECDBFDF91CF911F910F91FF90EF908B
:101ED000DF90CF90BF909DCF9CDF81EC07DF80E04B
:101EE00005DF81E803DF1DDF8111F7CFD7CE1F9318
:101EF000CF93DF93182FEB01188219821A821B826D
:101F000094DF811101C026C08CE4F0DE8AE075DF29
:101F1000812FECDE8CE4EADE8BE06FDF81E0E6DE31
:101F200078DF8823B9F081DF8823A1F08BE6DEDE3D
:101F300084E063DF80EADADE82E0D8DE84E2D6DEA7
:101F4000F0DE8883EEDE8983ECDE8A839AB581E059
:101F5000911101C080E0DF91CF911F910895CF9240
:101F6000DF92EF92FF920F931F93CF93DF936B015A
:101F70007C01EA01890159DF882361F18CE4B6DE36
:101F80008AE03BDF83E4B2DE02301105C0F08BE66D
:101F9000ADDEC701B60119DF80EAA8DE802F8150CF
:101FA000A5DE84E2A3DE0C0F1D1F02C0BADE8993FA
:101FB000C017D10759F08AB58111F8CF07C08CE05E
:101FC00095DEC701B60101DFACDE88839AB581E0FA
:101FD000911101C080E0DF91CF911F910F91FF908F
:101FE000EF90DF90CF9008950F931F93CF93DF93DF
:101FF00000D000D0CDB7DEB7182F022F49835A8307
:102000006B837C8312DF882399F08CE46FDE8AE097
:10201000F4DE812F6BDE8CE469DE49815A816B81AD
:102020007C81CB01BA01D1DE802F60DE81E001C06E
:1020300080E00F900F900F900F90DF91CF911F9144
:102040000F9108952F923F924F925F926F927F92DD
:102050008F929F92AF92BF92CF92DF92EF92FF92B8
:102060000F931F93CF93DF93782E662E842E922E9C
:1020700017012801E60120FF11C0D7DE811102C03F
:1020800080E042C08CE432DE8AE0B7DE862D2EDEB0
:102090008CE42CDE8BE0B1DE81E028DEA114B104FB
:1020A00019F491FC1FC02FC0C0DE882349F38CE4D3
:1020B0001DDE8AE0A2DE872D19DE8BE617DEC20167
:1020C000B10183DE80EA12DE8A2D81500FDE84E6C4
:1020D0000DDEAC0EBD1E02C0899108DECA15DB05FF
:1020E000D9F7DFCFA2DE882309F4CACF8CE4FEDD66
:1020F0008AE083DE882DFADD8CE4F8DDC201B101CF
:1021000064DE80E0F3DD81E0DF91CF911F910F91DC
:10211000FF90EF90DF90CF90BF90AF909F908F9007
:102120007F906F905F904F903F902F9008951F93F6
:10213000CF93DF9300D000D0CDB7DEB7182F4983FF
:102140005A836B837C8371DE49815A816B817C81E8
:10215000882309F467C08CE4103429F4C7DD8AE0D1
:102160004CDE80E440C049835A836B837C83103308
:1021700009F040C0BBDD8AE040DE86E3B7DD8CE4D9
:10218000B5DD8BE03ADE81E0B1DD4FDE882309F476
:1021900049C08CE4ABDD8AE030DE83E3A7DD8BE66B
:1021A000A5DD49815A816B817C81CB01BA010DDEAD
:1021B00080EA9CDD80919A01815098DD84E696DD6D
:1021C00010E003C080E092DD1F5F212F30E080919E
:1021D0009A0190919B0128173907A0F38CE486DDC2
:1021E0008AE00BDE80E382DD8CE480DD8BE005DEBF
:1021F00081E00FC07BDD8AE000DE812F77DD8CE49B
:1022000075DD49815A816B817C81CB01BA01DDDDAD
:1022100080E06CDD0F900F900F900F90DF91CF91C9
:102220001F91F7CD80E00F900F900F900F90DF91EE
:10223000CF911F910895282F207330E0220F331F74
:1022400020693F6F8F70822B51CD1F93CF93DF9307
:102250001F92CDB7DEB7182F88E6998347DD812F0F
:1022600045DD89E643DD9981892F0F90DF91CF917C
:102270001F913CCD80E83ADD54DD9AB5992321F0D9
:1022800081FFF8CF81E0089580E008958091980162
:10229000282F207330E0220F331F20618F70822B94
:1022A00025DD3FDD9AB5992321F087FDEFCF81E051
:1022B000089580E00895BF92CF92DF92EF92FF924F
:1022C0000F931F93CF93DF93CDB7DEB728970FB649
:1022D000F894DEBF0FBECDBF41DD82EC07DD82E0AA
:1022E00005DD80EE03DD7E0189E0E80EF11C8E0144
:1022F0000F5F1F4F58E0D52EB02EC12EECECF1E051
:10230000AB2DBC2D8D2D01900D928A95E1F7F70133
:1023100082917F01EBDCE016F10681F728960FB67B
:10232000F894DEBF0FBECDBFDF91CF911F910F910B
:10233000FF90EF90DF90CF90BF909CCF9BDF80EC21
:10234000D5DC80E0D3DC80E8D1DCEBDC8111F7CF99
:10235000B7CCEF92FF920F931F93CF93DF937C0143
:10236000EB018A0193DF8823C1F08091990163DF3B
:1023700080E0BCDCC70169DF0C0F1D1F04C084E2D4
:10238000B5DCCFDC8993C017D10719F08AB581116C
:10239000F6CF9AB581E0911101C080E0DF91CF9135
:1023A0001F910F91FF90EF900895EF92FF920F937E
:1023B0001F93CF93DF937C018B01EA0167DF8111CB
:1023C00002C080E023C0C0FF06C0F801EC0FFD1F73
:1023D0008FEF80832196809199012DDF8DE186DC3E
:1023E000C70133DF10C052DF882359F384E67EDC57
:1023F000F80180817BDC84E679DCF80181810E5F65
:102400001F4F74DC2297209771F781E0DF91CF9105
:102410001F910F91FF90EF9008951F93CF93DF933B
:10242000182FEB0133DF882381F08091990103DFBE
:10243000812F5CDCCE01816008DF80E657DC80E024
:1024400055DCDF91CF911F9121CF80E0DF91CF91BB
:102450001F910895BF92CF92DF92EF92FF920F9358
:102460001F93CF93DF937C018B01EA0181D2B82EB9
:10247000811133C0209731F028813981021B130B61
:10248000E20EF31EC12CD12C23C08091E80085FD03
:1024900015C08091E8008E778093E80093D4209750
:1024A00049F0888199818C0D9D1D9983888325E051
:1024B000B22E13C05DD2882359F00EC0F70181916E
:1024C0007F018093F10001501109FFEFCF1ADF0A5D
:1024D00001151105D1F601C0B82E8B2DDF91CF91DA
:1024E0001F910F91FF90EF90DF90CF90BF900895D4
:1024F000BF92CF92DF92EF92FF920F931F93CF93F1
:10250000DF937C018B01EA0133D2B82E811133C0F5
:10251000209731F028813981021B130BE20EF31E44
:10252000C12CD12C23C08091E80085FD15C080917D
:10253000E8008B778093E80045D4209749F08881A4
:1025400099818C0D9D1D9983888345E0B42E13C01D
:102550000FD2882359F00EC08091F100F7018193CA
:102560007F0101501109FFEFCF1ADF0A0115110594
:10257000D1F601C0B82E8B2DDF91CF911F910F9115
:10258000FF90EF90DF90CF90BF900895BF92CF92D1
:10259000DF92EF92FF920F931F93CF93DF936C0123
:1025A0008B017A01E5D1B82E81113AC0E80121975B
:1025B000CC0DDD1DE114F10439F0F70120813181EA
:1025C000021B130BC21BD30BC12CD12C24C0809136
:1025D000E80085FD17C08091E8008B778093E800C4
:1025E000F1D3E114F10451F0F701808191818C0D58
:1025F0009D1D9183808355E0B52E12C0B9D18823EB
:1026000051F00DC08091F10088832197015011098C
:10261000FFEFCF1ADF0A01151105C9F601C0B82E68
:102620008B2DDF91CF911F910F91FF90EF90DF9055
:10263000CF90BF90089520910B0330910C03261783
:10264000370748F06115710539F42091E8002E77BD
:102650002093E80001C0B9019C0180E033C09EB323
:10266000992309F442C0953009F441C09091E800E3
:1026700093FD39C09091E80092FD2FC09091E80041
:1026800090FF20C08091F20090E0F901821B930B33
:1026900005C021912093F100615071099F01280F1D
:1026A000391F6115710519F02031310590F381E072
:1026B0002031310509F080E09091E8009E779093F9
:1026C000E8009F016115710551F68111C8CF05C061
:1026D0008EB3882351F0853051F08091E80082FF5D
:1026E000F7CF80E0089581E0089582E0089583E0C7
:1026F000089520910B0330910C032617370748F0FB
:102700006115710539F42091E8002E772093E800D7
:1027100001C0B9019C0180E034C09EB3992309F443
:1027200043C0953009F442C09091E80093FD3AC04F
:102730009091E80092FD30C09091E80090FF21C098
:102740008091F20090E0F901821B930B06C0249166
:102750002093F1003196615071099C012E0F3F1FAB
:102760006115710519F02031310588F381E02031C0
:10277000310509F080E09091E8009E779093E800A1
:102780009F016115710549F68111C7CF05C08EB350
:10279000882351F0853051F08091E80082FFF7CF17
:1027A00080E0089581E0089582E0089583E008952F
:1027B000EF92FF920F931F93CF93DF938B012091A2
:1027C0000B0330910C032617370748F0611571058C
:1027D00039F42091E8002E772093E80001C08901A8
:1027E000382F492F20E036C08EB3882309F445C026
:1027F000853009F444C08091E80083FD3CC080919D
:10280000E80082FD32C08091E80080FF23C0E090A4
:10281000F200F12CC32FD42FEC1AFD0A07C0CE0111
:1028200076D48093F100219601501109CE018E0DCE
:102830009F1D0115110519F08031910580F321E0EC
:10284000409709F020E08091E8008E778093E800BF
:102850003C2F4D2F0115110539F62111C5CF05C0AB
:102860008EB3882351F0853051F08091E80082FFCB
:10287000F7CF80E005C081E003C082E001C083E0C3
:10288000DF91CF911F910F91FF90EF9008958F707E
:102890008093E900EBEEF0E0808181608083EDEED3
:1028A000F0E010826093EC0040838091EE00881F7E
:1028B0008827881F08950F931F93CF93DF93062FC8
:1028C000EC0110E02EC09881911103C01F5F259686
:1028D00028C02C81E981FA816B81892F8F70853026
:1028E00010F080E021C0223010F056E001C052E02C
:1028F00028E030E040E003C04F5F220F331F2E1767
:102900003F07D0F34295407F452B991F9927991F88
:102910006295660F660F607C692BB9DF8111D6CF97
:10292000E0CF1013D0CF81E0DF91CF911F910F91B5
:1029300008958091050387FD05C08091E80080FF20
:102940000DC010C08091E80082FD04C08EB38111DB
:10295000F9CF08958091E8008B7707C08EB381117D
:10296000ECCF08958091E8008E778093E800089579
:102970008091E4009091E50045E62091EC0020FD77
:102980001EC022C02EB3222391F0253091F0209159
:10299000EB0025FD10C02091E4003091E5002817E0
:1029A000390759F34150C90141F784E0089582E0A5
:1029B000089583E0089581E0089580E008952091CE
:1029C000E80020FFDFCFF9CF2091E80022FFDACF27
:1029D000F4CF3BD03DD08091D8008F778093D80042
:1029E0008091D80080688093D8008091D8008F7D36
:1029F0008093D80019BC82E089BD09B400FEFDCFE8
:102A00001EBA1092030342E160E080E040DF809153
:102A1000E1008E7F8093E1008091E20081608093ED
:102A2000E2008091E20088608093E2008091E00003
:102A30008E7F8093E0000895E3E6F0E080818E7F52
:102A4000808381E080930403C4CF1092E200089554
:102A50001092E10008951F920F920FB60F92112469
:102A60002F933F934F935F936F937F938F939F9396
:102A7000AF93BF93EF93FF938091E10080FF17C066
:102A80008091E20080FF13C08091E2008E7F8093EE
:102A9000E2008091E20080618093E2008091D800A2
:102AA00080628093D80019BC1EBA0E944B028091AC
:102AB000E10084FF2EC08091E20084FF2AC019BC8F
:102AC00082E089BD09B400FEFDCF8091D8008F7DE2
:102AD0008093D8008091E1008F7E8093E100809107
:102AE000E2008F7E8093E2008091E200816080931B
:102AF000E20080910303882311F084E007C08091F5
:102B0000E30087FF02C083E001C081E08EBB0E942A
:102B100049028091E10083FF21C08091E20083FFA0
:102B20001DC08091E100877F8093E10082E08EBB31
:102B3000109203038091E1008E7F8093E1008091E9
:102B4000E2008E7F8093E2008091E20080618093BA
:102B5000E20042E160E080E09ADE33D1FF91EF9144
:102B6000BF91AF919F918F917F916F915F914F91A5
:102B70003F912F910F900FBE0F901F9018951F93AC
:102B8000CF93DF9300D01F92CDB7DEB7E5E0F3E03F
:102B90008091F100819383E0ED30F807C9F70E943E
:102BA00008038091E80083FFF7C0809105039091AE
:102BB0000603953009F470C038F4913079F170F063
:102BC000933009F0E9C02AC0983009F4B7C09930B1
:102BD00009F4C6C0963009F0DFC083C0803899F090
:102BE000823809F0D9C08091090390910A038F704F
:102BF00099278093E9009091EB0095FB992790F934
:102C00001092E90001C090E08091E800877F8093F6
:102C1000E8009093F1001092F1009BC0882319F016
:102C2000823009F0B9C08F71823009F0B5C080914F
:102C3000070381112BC08091090390910A038F70C3
:102C40009927009709F4A8C08093E9002091EB0030
:102C500020FF1CC020910603233021F48091EB005B
:102C6000806212C09091EB0090619093EB0021E0A4
:102C700030E001C0220F8A95EAF72093EA00109213
:102C8000EA008091EB0088608093EB001092E900ED
:102C90008091E800877F60C081117EC0809107032A
:102CA000909108038F779927182F9091E3009078DF
:102CB000982B9093E3008091E800877F8093E80051
:102CC00038DE8091E80080FFFCCF8091E3008068CF
:102CD0008093E300112311F083E001C082E08EBBFA
:102CE0005BC08058823008F057C09E012D5F3F4F77
:102CF000AE014F5F5F4F6091090380910703909190
:102D000008030E943B03BC01009709F445C0809171
:102D1000E800877F8093E8002B8189819A812111C7
:102D200002C0E7DC05C0213011F442DD01C083DCC4
:102D30008091E8008B778093E8002EC0803861F5A1
:102D40008091E800877F8093E8008091030380935F
:102D5000F1008091E8008E778093E800EADD1CC0E6
:102D600081111AC0909107039230B0F48091E8006D
:102D7000877F8093E80090930303DBDD809103035A
:102D8000811104C08091E30087FF02C084E001C08C
:102D900081E08EBB0E944D028091E80083FF0AC053
:102DA0008091E800877F8093E8008091EB0080624B
:102DB0008093EB000F900F900F90DF91CF911F91B8
:102DC00008950895CF938EB38823A9F08091E900E8
:102DD0008F709091EC0090FF02C090E801C090E0ED
:102DE000C92FC82B1092E9008091E80083FDC7DE4F
:102DF000CF70C093E900CF910895CF93DF93EC019A
:102E00004096FC018BE0DF011D928A95E9F782E094
:102E10008C83898783E08E8761E0CE0101964BDD4C
:102E2000882361F061E0CE01069645DD882331F00C
:102E300061E0CE010B96DF91CF913DCD80E0DF9137
:102E4000CF910895CF93C62F2EB32430F1F4FC0117
:102E50004489558966897789452B462B472BA9F0EC
:102E600081818F708093E9008091E80085FF04C024
:102E7000C093F10080E00AC08091E8008E778093D3
:102E8000E80076DD8823A1F301C082E0CF910895A8
:102E90002EB3243029F5FC01448955896689778948
:102EA000452B462B472BE1F081818F708093E90001
:102EB0008091F200811102C080E008959091E800B5
:102EC0008091E8008E778093E80095FDF5CF50DD86
:102ED000811107C09091E8009E779093E8000895D3
:102EE00082E008952EB3243089F4FC014489558989
:102EF00066897789452B462B472B41F021812F701E
:102F00002093E9002091E80020FDC2CF08952EB360
:102F1000243019F02FEF3FEF24C0FC01448955897C
:102F200066897789452B462B472BA1F386818F70C5
:102F30008093E9008091E80082FFECCF8091F2005D
:102F4000882321F02091F10030E002C02FEF3FEF05
:102F50008091F200811105C08091E8008B77809309
:102F6000E800C90108950895CF93DF93EC018091A3
:102F7000E80083FFA7C0888190E020910903309189
:102F80000A032817390709F09DC080910603813292
:102F900061F020F4803209F095C03DC0823209F41E
:102FA0006DC0833209F08EC07DC080910503813AE7
:102FB00009F088C08091E800877F8093E8008091C5
:102FC000E80080FFFCCF4C895D896E897F89409342
:102FD000F100BB27A72F962F852F8093F100CB01FF
:102FE000AA27BB278093F100472F5527662777270D
:102FF0004093F100888D8093F100898D8093F100DA
:103000008A8D8093F1008091E8008E778093E800AC
:10301000DF91CF918ECC80910503813209F052C0AF
:103020008091E800877F8093E80004C08EB38823F6
:1030300009F448C08091E80082FFF8CF3091F10098
:103040002091F1009091F1008091F1003C8B2D8B4B
:103050009E8B8F8B8091F100888F8091F100898FFA
:103060008091F1008A8F8091E8008B778093E8004F
:1030700060DCCE01DF91CF910C9485028091050335
:10308000813201F58091E800877F8093E80051DC70
:103090008091070390910803998B888BCE01DF9173
:1030A000CF9161CF80910503813261F48091E80076
:1030B000877F8093E8003DDC60910703CE01DF91BC
:1030C000CF9151CFDF91CF910895A1E21A2EAA1B83
:1030D000BB1BFD010DC0AA1FBB1FEE1FFF1FA217C8
:1030E000B307E407F50720F0A21BB30BE40BF50BC5
:1030F000661F771F881F991F1A9469F7609570954E
:10310000809590959B01AC01BD01CF010895F9997F
:10311000FECF92BD81BDF89A992780B50895262FDC
:10312000F999FECF92BD81BDF89A019700B40216BD
:1031300039F01FBA20BD0FB6F894FA9AF99A0FBE6B
:063140000895F894FFCF92
:103146000083100000010410000001820800000145
:10315600000000000000000000000009023E00021E
:103166000100C0320904000001020201000524002A
:10317600100104240206052406000107058203083F
:1031860000FF09040100020A0000000705040210FE
:103196000005070583021000050902200001010051
:1031A600C0320904000002FF0000000705000240CB
:1031B600000A0705020240000A8001008101009012
:1031C60001009101019201FF9401219803069E03DB
:1031D60001A10100A403000132332000C001000157
:1031E600302040206830222A3218242C354C081A08
:1031F60023233323232326263626262601010100F0
:10320600000138391289AB45CDD888FF1289AB4504
:10321600CDD888FF4156524953505F4D4B3200007E
:00000001FF
