:1000000035C100004FC100004DC100004BC10000D0
:1000100049C1000047C1000045C1000043C10000C4
:1000200041C100003FC100003DC100000C94B50D6E
:1000300039C1000037C1000035C100000C946B09C4
:1000400031C100002FC100002DC1000073C30000AA
:1000500029C1000027C1000025C100007FC10000A8
:1000600021C100001FC100001DC100001BC1000014
:1000700019C1000017C1000015C1000013C1000024
:1000800011C100000FC100000DC100000BC1000034
:1000900009C1000007C10000120110010200001098
:1000A000D016A40B0100010200010403090412038D
:1000B0006500480061004A006F002E006400650082
:1000C000000022036500480061004A006F00200024
:1000D0005500530042003200530065007200690071
:1000E00061006C00000012011001FF000010EB0322
:1000F0000421000201020301040309041203650044
:10010000480061004A006F002E0064006500000096
:1001100018034100560052004900530050002000CF
:100120006D006B0049004900000004000400040059
:10013000050005000600060006000700070007008E
:1001400008000900090009000A000A000B000C0061
:100150000C000D000E000F000F0010001100120027
:1001600013001400150016001700180019001B00DA
:100170001C001E001F002100220024002600280071
:100180002A002C002E0031003300360039003B00DD
:100190003E004100450048004C004F00540058000C
:1001A0005C00610065006A00700075007B008100E2
:1001B00088008E0096009D00A500AD00B500BE0031
:1001C000C800D200DC00E700F200FE000A011801BE
:1001D00025013401430153016401760188019B012B
:1001E000AF01C501DB01F3010B02250240025C02F5
:1001F0007A029902BA02DC02000326034E03770357
:10020000A303D1030104320467049F04DA04150533
:1002100055059705E10528067606C7061F077A07E4
:10022000D7073308A30809097A09F609700AF70AFB
:100230007C0B0D0CAD0C480DF20D920E410F011010
:10024000D51097119812871378147B158C16A41764
:10025000D018091A501BA21C0B1E8C1F1921AF228B
:100260006F243726404000410142430011241FBE45
:10027000CFEFD4E0DEBFCDBF11E0A0E0B1E0EEE40F
:10028000F2E202C005900D92A23CB107D9F712E04C
:10029000A2ECB1E001C01D92AC3EB107E1F746D13E
:1002A0000C942511ADCEFC018FB7F8947183608357
:1002B0007383628375836483640F751F778366839A
:1002C00051874087138612868FBF0895CF93DF939F
:1002D000EC01E881F9816083888199810196998395
:1002E00088832E813F818217930721F48C819D8121
:1002F000998388832FB7F8948A859B8501969B877D
:100300008A872FBFDF91CF910895CF93DF93EC01C0
:10031000EA81FB813191FB83EA838E819F81E8171B
:10032000F90721F48C819D819B838A832FB7F894F0
:100330008A859B8501979B878A872FBF832FDF91B3
:10034000CF9108952E9808952E9A0895FC01208942
:1003500020FF02C05F9808955F9A08951F920F9240
:100360000FB60F9211242F933F934F935F936F9388
:100370007F938F939F93AF93BF93EF93FF9360917E
:10038000CE008EB3843089F48FB7F894209159024F
:1003900030915A028FBF80915702909158022817CE
:1003A000390719F08FE492E091DFFF91EF91BF914F
:1003B000AF919F918F917F916F915F914F913F91FD
:1003C0002F910F900FBE0F901F9018951F93FC0157
:1003D000818D813019F0823019F404C010E303C01C
:1003E00010E001C010E2808D823009F41860828D27
:1003F000873031F0883031F0863029F4126003C044
:10040000146001C016605B9A1092C9001092C80077
:100410001092CA002489358946895789CA01B901D1
:100420009695879577956795605C7D4B804F9F4F3C
:100430000E94E910215030403093CD002093CC0031
:100440001093CA0082E08093C80088E98093C900B5
:100450005B981F910895FC018091C201882311F4DB
:10046000CF01F5C0CF0124C18091C201882321F4BE
:1004700080E091E00C943B1008951F938091C2019D
:100480008823A9F480E091E00E941410182F1170C5
:1004900083EC91E06FEC71E040E850E004DF8FE422
:1004A00092E06BE572E040E850E0FDDE07C082E0DC
:1004B00060E842E30E94D30C182F1170112311F051
:1004C0002E9801C02E9A1F91089584B7877F84BF0C
:1004D00088E10FB6F89480936000109260000FBE20
:1004E000E0EDF0E0808185608083E1E6F0E080E887
:1004F000808310825098589A00000000000089B153
:10050000809581708093C201269A2E9A0C94A60D34
:100510008EB3843051F482E08093E9008091E8004A
:1005200082FF03C02E9A1BD12E9808951F93CF935C
:10053000DF93CBDF8091C201882379F483EC91E0D3
:100540006FEC71E040E850E0AEDE8FE492E06BE5E6
:1005500072E040E850E0A7DE01C00ED27894C0E01F
:10056000D0E08091C201882309F066C08FB7F8946B
:100570002091CD013091CE018FBF8091CB01909120
:10058000CC012817390769F080E091E00E947E0FC6
:10059000BC0197FD06C02E9A83EC91E097DEC0E087
:1005A000D0E08FB7F8942091590230915A028FBF52
:1005B0002115310529F12E9A809101018F708093C8
:1005C000E9008091E80080FF19C0C90120313105A0
:1005D00010F08FE090E0182F0FC0E0915102F091E1
:1005E000520280E091E060810E94EF0F1150882359
:1005F00029F48FE492E089DE112379F7C0E0D0E09E
:100600008091C80085FF13C02FB7F8948091CD0169
:100610009091CE012FBF892B51F083EC91E075DED4
:10062000982F8091C80085FFFCCF9093CE0080E08A
:1006300091E00E94D80F01C06BDF0E946A0F2196E3
:1006400083E0C83ED80709F08CCF2E9888CFDA0116
:10065000F9011082923049F0933069F0913001F540
:10066000E8E9F0E022E130E01FC09083EBE1F1E047
:100670002EE330E019C0813049F0813018F082302B
:1006800079F408C0EAEAF0E0849107C0EEEAF0E00D
:10069000849103C0E2ECF0E08491282F30E004C0A4
:1006A000E0E0F0E020E030E0ED93FC93C901089534
:1006B000DA01F9011082923049F0933069F09130FB
:1006C00089F5E6EEF0E022E130E030C09083E9E524
:1006D000F1E020E230E02AC0813059F0813028F08A
:1006E000823059F08330F1F40EC0E8EFF0E08491ED
:1006F00007C0ECEFF0E0849103C0E0E1F1E0849109
:10070000282F30E013C080917901282F30E082E358
:1007100090E0909388018093870182E08083E9E7ED
:10072000F1E004C0E0E0F0E020E030E0ED93FC9385
:10073000C901089578941F920F920FB60F92112459
:100740008F938AB5882321F08AB581508ABD01C074
:1007500015BC8F910F900FBE0F901F901895FF92B0
:100760000F931F931091F10084E68ABD85E085BD4B
:10077000133109F4C0C01431F0F4163009F480C00C
:10078000173048F4113099F1113008F4CBC014300F
:1007900008F0C8C049C0103109F4A9C0113120F4D3
:1007A0001A3009F0BFC091C0113109F4A2C0123152
:1007B00009F0B8C0A6C0183109F4A5C0193168F411
:1007C000153109F498C0153108F498C0163109F4B0
:1007D00095C0173109F0A6C099C01D3120F41A3117
:1007E00008F091C093C01D3109F09CC092C0809167
:1007F000E8008B778093E80082E08093E9008091A5
:10080000EC0081608093EC001093F1001092F100F5
:100810008AE08093F10087E991E06AE070E040E0CF
:1008200050E00E94810C94C00091F100123011F050
:10083000FF2402C0F090F1008091E8008B77809354
:10084000E80082E08093E9008091EC008160809371
:10085000EC001093F100802FAFD0123041F481FFF3
:100860000DC01092F100802F6F2DAED071C080FFAF
:1008700005C01092F100802F97D068C080EC66C050
:100880008EED92E064E070E040E050E096D7809119
:10089000E8008B778093E80082E08093E900809104
:1008A000EC0081608093EC008091DE029091DF0289
:1008B000A091E002B091E102B7FF03C081E0809314
:1008C000DD0286E08093F1000FC08091E8008B7715
:1008D0008093E80082E08093E9008091EC008160E1
:1008E0008093EC001093F1001092F10031C058D4C5
:1008F00034C023D432C0812FF3D22FC0812F46D2EF
:100900002CC0F6D12AC0812FF1D027C0812FA9D0C9
:1009100024C056D122C08091E8008B778093E800F4
:100920000E94420D8091F2008034A9F38091E8008A
:100930008B778093E80082E08093E9008091EC005F
:1009400081608093EC001093F10089EC8093F100BA
:100950008091E8008E778093E80015BC0E94420DDC
:1009600082E08093E9008091EC008E7F8093EC0020
:100970001F910F91FF9008958DE487BD82E084BDA3
:1009800080936E0039D0D7C4982FE2EAF1E08081DD
:10099000981741F081E0ED3BF80711F03396F7CF5F
:1009A000E0E0F0E0CF010895EFDFFC01009711F4E3
:1009B00080E0089582810895E7DFFC01009711F43B
:1009C00080E00895818108950F931F93182F062FBB
:1009D000DBDFFC01009769F002831E3919F480E027
:1009E00090E004C0183929F481E090E0602F0E9463
:1009F00013111F910F9108950F931F9380E090E0C2
:100A00000E940B11182F81E090E00E940B11082F1B
:100A10001F3F21F08EE9B8DFFC0112830F3F21F068
:100A200088E9B2DFFC0102831F910F910895282FFE
:100A300040ED57E003C0CA010197F1F7222321F0EE
:100A40008AB521508823B9F70895982F8091C00165
:100A5000882329F09EBD0DB407FEFDCF0895892F90
:100A6000A8C4DF92EF92FF920F931F93DF93CF936F
:100A700000D000D0CDB7DEB7D82E8E010F5F1F4F4C
:100A8000C80164E070E040E050E0E9D68091E80001
:100A90008B778093E80082E08093E9008091EC00FE
:100AA00081608093EC0085E0E82EF12CEC0EFD1EB9
:100AB000F80181918F01C9DF0E151F05C9F7D0928A
:100AC000F1001092F1001092F1008091E8008E7711
:100AD0008093E8000F900F900F900F90CF91DF91CF
:100AE0001F910F91FF90EF90DF900895BF92CF92EA
:100AF000DF92EF92FF920F931F93DF93CF93CDB7C7
:100B0000DEB729970FB6F894DEBF0FBECDBFB82E63
:100B1000CE01059665E070E040E050E0A0D68091FF
:100B2000E8008B778093E80082E08093E900809171
:100B3000EC0081608093EC008E010A5F1F4F7E0104
:100B40000894E11CF11C9AE0C92ED12CCC0EDD1EBC
:100B5000F80190818091C001882331F09EBD0DB4D1
:100B600007FEFDCF8EB502C0892F23D4F7018193F4
:100B70007F010F5F1F4F0C151D0551F7B092F1005B
:100B80001092F1008D81FE01E80FF11D80818093AC
:100B9000F1001092F1008091E8008E778093E800D8
:100BA00029960FB6F894DEBF0FBECDBFCF91DF916F
:100BB0001F910F91FF90EF90DF90CF90BF9008951D
:100BC000EF92FF920F931F93DF93CF93CDB7DEB7D2
:100BD000C250D1400FB6F894DEBF0FBECDBFCE01DC
:100BE000019663E070E040E050E039D634E0E32E57
:100BF000F12CEC0EFD1E6981C70170E040E050E071
:100C00002ED68091E8008B778093E80082E0809375
:100C1000E9008091EC0081608093EC008DE180938D
:100C2000F1001092F10000E00BC08981081728F450
:100C3000F701E00FF11D808101C080E006DF0F5F4A
:100C40008B81081790F310E024E0E22EF12CEC0EDB
:100C5000FD1E2BC089819091C001081778F4F7011F
:100C6000E00FF11D8081992331F08EBD0DB407FE98
:100C7000FDCF8EB501C09DD30F5F0AC0992331F01F
:100C80001EBC0DB407FEFDCF8EB502C080E091D32F
:100C90008093F1008091E80085FD06C08091E80016
:100CA0008E778093E800EED61F5F8A81181790F246
:100CB0001092F1009091E8008091E8008E77809387
:100CC000E80095FD07C0DED68091E8008E7780931E
:100CD000E800D8D6CE5FDE4F0FB6F894DEBF0FBE69
:100CE000CDBFCF91DF911F910F91FF90EF900895AD
:100CF000EF92FF920F931F93DF93CF9300D000D01A
:100D000000D0CDB7DEB7CE01019666E070E040E0DE
:100D100050E0A5D58091E8008B778093E80082E0D1
:100D20008093E9008091EC0081608093EC008E015B
:100D30000D5F1F4F47E0E42EF12CEC0EFD1EF80175
:100D400081918F0182DE0E151F05C9F78A818823E4
:100D500021F489816CDE90E002C056D3982F82E1A5
:100D60008093F1009093F1008091E8008E7780935A
:100D7000E80026960FB6F894DEBF0FBECDBFCF9128
:100D8000DF911F910F91FF90EF900895DF92EF9206
:100D9000FF920F931F93DF93CF9300D00F92CDB7A5
:100DA000DEB7F82ECE01019663E070E040E050E03F
:100DB00056D599818A8189839A838091E8008B77BF
:100DC0008093E80082E08093E9008091EC008160EC
:100DD0008093EC00F092F1001092F10000E010E03E
:100DE00068E0D62EEE24E39458C08091DD0288237B
:100DF00019F028D31092DD028B8127DE8091DE026C
:100E00009091DF02A091E002B091E102892F9A2F28
:100E1000AB2FBB271ADE8091DE0217DE8091C00166
:100E2000882331F01EBC0DB407FEFDCF8EB502C085
:100E300080E0BFD28093F1008091E80085FD06C07C
:100E40008091E8008E778093E8001CD624E1F216AA
:100E500019F48B818D258B8300FD03C086E1F81684
:100E6000D1F48091DE029091DF02A091E002B09176
:100E7000E1020196A11DB11D8093DE029093DF0275
:100E8000A093E002B093E10226E1F21621F0892B53
:100E900011F4E092DD020F5F1F4F89819A810817DC
:100EA000190708F4A2CF1092F1009091E800809108
:100EB000E8008E778093E80095FD07C0E3D5809128
:100EC000E8008E778093E800DDD50F900F900F90AB
:100ED000CF91DF911F910F91FF90EF90DF900895D8
:100EE0004F925F926F927F928F929F92AF92BF923A
:100EF000CF92DF92EF92FF920F931F93DF93CF93E6
:100F0000CDB7DEB7C950D1400FB6F894DEBF0FBEE3
:100F1000CDBF182FCE01019669E070E040E050E0AF
:100F20009ED46A81798181E06130780798F0809160
:100F3000E8008B778093E80082E08093E90080915D
:100F4000EC0081608093EC001093F10080EC8093C2
:100F5000F100D6C07A836983CE010A9640E050E062
:100F60007ED489819A810A968F739070892B31F48F
:100F70008091E8008B778093E80084D58091E80029
:100F80008B778093E80082E08093E9008091EC0009
:100F900081608093EC00133111F4888401C089844E
:100FA0006090DE027090DF02EE24FF24FAE0AF2EA4
:100FB000B12CAC0EBD1ECC24DD24E8E04E2E552411
:100FC00053946DC0F50190800B818091DD028823E0
:100FD00019F038D21092DD028D8137DD8091DE026A
:100FE0009091DF02A091E002B091E102892F9A2F47
:100FF000AB2FBB272ADD8091DE0227DD892D25DD81
:10100000133119F48D8184258D83E114F10481F469
:10101000981471F0C0FE05C0133119F48F818860F7
:1010200002C08F81877F8F83E090DE02F090DF0225
:1010300000FD12C0E114F10421F403FD02C0097F98
:101040000260802FB701482D2C810F8104D2282FF8
:10105000882361F5EE24FF24C0FC02C01531C9F4D9
:101060008091DE029091DF02A091E002B091E10256
:101070000196A11DB11D8093DE029093DF02A09323
:10108000E002B093E102133121F4892B11F4509264
:10109000DD020894A11CB11C0894C11CD11C8981DB
:1010A0009A81C816D90608F48DCF20E08B8187FF7E
:1010B00023C08E81CADC872DC8DC862DC6DC80E08B
:1010C000C4DC8B8185FF06C0E114F10419F48F7C28
:1010D00080618B838B81B701482D2C810F81BBD11F
:1010E000282F133149F48091DE029091DF02892B81
:1010F00019F481E08093DD021093F1002093F10058
:101100008091E8008E778093E800C75FDE4F0FB6CE
:10111000F894DEBF0FBECDBFCF91DF911F910F912D
:10112000FF90EF90DF90CF90BF90AF909F908F9007
:101130007F906F905F904F9008950F931F93DF9370
:10114000CF9300D0CDB7DEB7CE01019662E070E05C
:1011500040E050E084D308EE10E0F80180818B7706
:10116000808382E08093E900ECEEF0E08081816092
:10117000808389815CDC80E0B5D1EFD08A8157DC47
:10118000E1EFF0E081E180831082F80180818E77C9
:1011900080830F900F90CF91DF911F910F91089551
:1011A0008F929F92AF92BF92CF92DF92EF92FF9277
:1011B0000F931F93DF93CF93CDB7DEB72F970FB663
:1011C000F894DEBF0FBECDBFCE0105966BE070E098
:1011D00040E050E044D38091E8008B778093E800B2
:1011E00082E08093E9008091EC0081608093EC00C4
:1011F0001092DE021092DF021092E0021092E102E1
:101200008F8115DC7BD181E06DD18E8110DCBCE05B
:101210008B2E912C8C0E9D1E5E010894A11CB11C7E
:10122000A0E1CA2ED12CCC0EDD1E2AC08985FFDBA1
:10123000F80190818091C001882331F09EBD0DB4EA
:1012400007FEFDCF8EB502C0892FB3D0F701819381
:101250007F010F5F1F4F0C151D0541F78B858823FC
:10126000D1F0FE01E80FF11D90818A85981799F061
:1012700080E038D18E81DBDB81E034D18E81D7DB19
:101280009885992351F08AB5882339F09150988731
:1012900084017501CBCF90E001C090EC80E1809398
:1012A000F1009093F1008091E8008E778093E80040
:1012B0002F960FB6F894DEBF0FBECDBFCF91DF9152
:1012C0001F910F91FF90EF90DF90CF90BF90AF9064
:1012D0009F908F9008951F920F920FB60F92112436
:1012E0008F93199908C08091DB0287FF02C02A9A68
:1012F0001BC02A9819C08091DB02880F8093DB0203
:101300008091DC0281508093DC028091DC02882392
:1013100021F41092810082E086BB1B9B05C0809166
:10132000DB0281608093DB02199A8F910F900FBED0
:101330000F901F9018953E9A10926F0010928500A2
:1013400010928400109289001092880080E48093AB
:10135000800089E08093810008958091C0018823F6
:1013600049F084B1897F84B985B1867F85B91CBC79
:101370001DBC089584B1897F84B985B1867F85B904
:10138000DACF92E090936F00109285001092840063
:10139000E82FF0E0EE0FFF1FE45EFE4F8591949181
:1013A00090938900809388001092800010928100B1
:1013B00008958093DB0288E08093DC028091DB0259
:1013C00087FF02C02A9A01C02A98109285001092C5
:1013D00084008AE0809381008091DC02882319F0E8
:1013E0008AB58823C9F7109281008091DB020895A5
:1013F000982F8091C001882329F09EBD0DB407FE6F
:10140000FDCF0895892FD5CF80EFF2DF80E0F0DFA8
:1014100080E0EEDF8091C001882331F01EBC0DB466
:1014200007FEFDCF8EB502C080E0C3DF80FF03C0A2
:101430008AB5882349F78AB5882311F481E808958D
:1014400080E008958DE4D4DF80E0D2DF8091E00277
:10145000CFDF80E0CDCFEF92FF920F931F937B0100
:10146000142F90E08E778830910581F189309105B5
:1014700034F48230910559F0049759F50BC080324D
:10148000910541F08034910509F1409711F5822FC3
:10149000CEDA1FC0802FACDF8F2DAADF8E2DA8DF04
:1014A0008091C001882331F01EBC0DB407FEFDCF32
:1014B0008EB502C080E07DDF811719F48AB58823DC
:1014C00049F78AB5882329F490E804C09DDF982F56
:1014D00001C090E084E68ABD892F1F910F91FF9093
:1014E000EF900895882339F0249A8EE95DDA8823F5
:1014F00019F42C9A089524982C98089588E954DAC0
:10150000E82F8730D8F481E08093C001F0E0EC59F7
:10151000FD4FE491E061209A289A84B1866084B9F5
:1015200023982B9AE6FF03C08DB5816002C08DB56C
:101530008E7F8DBD2098E064ECBD08951092C001AF
:1015400084B1866084B985B1896085B98E2F19CF41
:101550009C014091EA025091EB024617570718F49C
:10156000F90190E03CC06115710511F0AB01F8CFB5
:101570008091E8008E778093E80040E050E0F0CF63
:101580008EB3882309F440C0853009F43FC08091B0
:10159000E80083FD3DC08091E80082FD2FC080916E
:1015A000E80080FF1CC08091F200282F30E007C0C7
:1015B00081918093F100415050402F5F3F4F411582
:1015C000510519F02031310598F390E020313105B3
:1015D00009F491E08091E8008E778093E80041154E
:1015E000510571F6992361F609C08EB3882361F025
:1015F000853061F08091E80083FD0AC08091E800A9
:1016000082FFF3CF80E0089582E0089583E008959B
:1016100081E008959C014091EA025091EB02461747
:10162000570718F4F90190E03DC06115710511F0FC
:10163000AB01F8CF8091E8008E778093E80040E01E
:1016400050E0F0CF8EB3882309F441C0853009F40F
:1016500040C08091E80083FD3EC08091E80082FD9B
:1016600030C08091E80080FF1DC08091F200282FDB
:1016700030E008C084918093F10031964150504091
:101680002F5F3F4F4115510519F02031310590F37F
:1016900090E02031310509F491E08091E8008E77E7
:1016A0008093E8004115510569F6992359F609C060
:1016B0008EB3882361F0853061F08091E80083FD6E
:1016C0000AC08091E80082FFF3CF80E0089582E0B5
:1016D000089583E0089581E00895EF92FF920F93BB
:1016E0001F93CF93DF939C010091EA021091EB02CC
:1016F0000617170718F4790190E03EC061157105CF
:1017000011F08B01F8CF8091E8008E778093E8008C
:1017100000E010E0F0CF8EB3882309F442C085309A
:1017200009F441C08091E80083FD3FC08091E8004A
:1017300082FD31C08091E80080FF1EC08091F200E0
:10174000C82FD0E00AC0C70166D58093F100089485
:10175000E11CF11C0150104021960115110519F0F2
:10176000C031D10580F390E0609709F491E0809159
:10177000E8008E778093E8000115110561F6992342
:1017800051F609C08EB3882361F0853061F08091F5
:10179000E80083FD0AC08091E80082FFF3CF80E07B
:1017A00005C082E003C083E001C081E0DF91CF91FA
:1017B0001F910F91FF90EF900895BF92CF92DF920B
:1017C000EF92FF920F931F93CF93DF938C01EB0166
:1017D0006A0158D1B82E8823B9F521970C0F1D1F27
:1017E0002196C114D10439F0F60180819181C81B82
:1017F000D90B081B190BEE24FF2424C08091E800AC
:1018000085FD16C08091E8008B778093E80062D355
:10181000C114D10449F0F601808191818E0D9F1D84
:101820009183808385E011C02DD1882359F00DC0AC
:101830008091F100F80180830150104021970894B5
:10184000E11CF11C2097D1F68B2DDF91CF911F91D8
:101850000F91FF90EF90DF90CF90BF900895BF92CF
:10186000CF92DF92EF92FF920F931F93CF93DF936C
:10187000182F092F7B016A0105D1B82E8823B1F5F5
:10188000812F902F9C01E901C114D10439F0F60198
:1018900080819181E81AF90AC80FD91F00E010E091
:1018A00022C08091E80085FD16C08091E8008B770A
:1018B0008093E8000FD3C114D10449F0F601808170
:1018C0009181800F911F9183808385E010C0DAD0D1
:1018D000882349F00CC08091F10089930894E108B5
:1018E000F1080F5F1F4FE114F104D9F68B2DDF9142
:1018F000CF911F910F91FF90EF90DF90CF90BF900D
:101900000895BF92CF92DF92EF92FF920F931F93B1
:10191000CF93DF93182F092F7B016A01B3D0B82E24
:101920008823B1F5812F902F9C01E901C114D104C6
:1019300039F0F60180819181E81AF90AC80FD91FA0
:1019400000E010E022C08091E80085FD16C0809183
:10195000E8008E778093E800BDD2C114D10449F02D
:10196000F60180819181800F911F9183808385E0B2
:1019700010C088D0882349F00CC089918093F10071
:101980000894E108F1080F5F1F4FE114F104D9F644
:101990008B2DDF91CF911F910F91FF90EF90DF90F2
:1019A000CF90BF9008958F708093E9008091EB00F5
:1019B00081608093EB001092ED006093EC00409307
:1019C000ED008091EE00881F8827881F08950F93EF
:1019D0001F93CF93DF93062FEC0110E02AC098816C
:1019E000992329F16B81E981FA812C81892F8F70EC
:1019F000853018F5223010F452E001C056E040E086
:101A000028E030E003C04F5F220F331F2E173F073F
:101A1000D0F36295660F660F607C991F9927991F16
:101A2000692B4295407F452BBEDF882331F01F5F35
:101A300025961017A0F281E001C080E0DF91CF91E0
:101A40001F910F9108958091E40288238CF403C0C4
:101A50008EB38823B1F08091E80082FFF9CF8091A6
:101A6000E8008B778093E80008958EB3882349F0CF
:101A70008091E80080FFF9CF8091E8008E77809315
:101A8000E80008954091E4005091E50024E680913B
:101A9000EC0080FF23C08091E80080FD1DC08EB364
:101AA000882311F482E00895853011F483E00895CD
:101AB0008091EB0085FF02C081E008958091E400F1
:101AC0009091E5008417950711F3222311F484E027
:101AD00008952150AC01DBCF80E008958091E800AB
:101AE00082FFDDCFF9CF3BD03DD08091D8008F77FA
:101AF0008093D8008091D80080688093D80080912E
:101B0000D8008F7D8093D80019BC82E089BD09B4CC
:101B100000FEFDCF1EBA1092E20280E060E042E1DA
:101B200042DF8091E1008E7F8093E1008091E200AE
:101B300081608093E2008091E20088608093E200FF
:101B40008091E0008E7F8093E0000895E3E6F0E06E
:101B500080818E7F808381E08093E302C4CF1092E6
:101B6000E20008951092E10008951F920F920FB6BF
:101B70000F9211242F933F934F935F936F937F9313
:101B80008F939F93AF93BF93EF93FF938091E10067
:101B900080FF17C08091E20080FF13C08091E200B7
:101BA0008E7F8093E2008091E20080618093E2006A
:101BB0008091D80080628093D80019BC1EBA0E9420
:101BC000A4018091E10084FF2EC08091E20084FF97
:101BD0002AC019BC82E089BD09B400FEFDCF809106
:101BE000D8008F7D8093D8008091E1008F7E809314
:101BF000E1008091E2008F7E8093E2008091E2001C
:101C000081608093E2008091E202882311F084E0F9
:101C100007C08091E30087FD02C081E001C083E03E
:101C20008EBB0E94A2018091E10083FF21C08091C0
:101C3000E20083FF1DC08091E100877F8093E10077
:101C400082E08EBB1092E2028091E1008E7F809351
:101C5000E1008091E2008E7F8093E2008091E200BB
:101C600080618093E20080E060E042E19CDE31D15F
:101C7000FF91EF91BF91AF919F918F917F916F9164
:101C80005F914F913F912F910F900FBE0F901F903A
:101C900018951F93DF93CF9300D00F92CDB7DEB787
:101CA000E4EEF2E08091F100819382E0EC3EF807EF
:101CB000C9F70E9434028091E80083FFF5C080914B
:101CC000E4029091E502953009F46FC0963040F43B
:101CD000913091F1913070F0933009F0E5C02CC053
:101CE000983009F4B3C0993009F4C2C0963009F0B5
:101CF000DBC07DC0803811F490E014C0823809F058
:101D0000D3C08091E8028F708093E9008091EB004E
:101D100090E025E0969587952A95E1F7982F9170A8
:101D20001092E9008091E800877F8093E80090930B
:101D3000F1001092F10095C0882319F0823009F06B
:101D4000B3C08F71823009F0AFC08091E602882362
:101D500031F52091E8022F7009F4A6C02093E90024
:101D60008091EB0080FF1BC0933021F48091EB0049
:101D7000806213C08091EB0080618093EB0081E072
:101D800090E002C0880F991F2A95E2F78093EA003D
:101D90001092EA008091EB0088608093EB00109233
:101DA000E9008091E800877F5FC0882309F07CC04C
:101DB0001091E6021F778091E3008078812B809359
:101DC000E3008091E800877F8093E8003CDE80910B
:101DD000E80080FFFCCF8091E30080688093E300FF
:101DE000112311F482E001C083E08EBB5DC08058F6
:101DF000823008F059C08091E6029091E70260912C
:101E0000E802AE014E5F5F4F9E012F5F3F4F0E9481
:101E10002B02BC01009709F447C08091E800877F3E
:101E20008093E8002981222321F48A819B81F2DBBF
:101E300007C08A819B81213011F44FDC01C088DB0F
:101E40008091E8008B778093E8002EC0803861F5A0
:101E50008091E800877F8093E8008091E202809380
:101E6000F1008091E8008E778093E800ECDD1CC0E3
:101E70008823D1F49091E6029230B0F48091E8008A
:101E8000877F8093E8009093E202DDDD8091E2029B
:101E9000882331F48091E30087FD02C081E001C016
:101EA00084E08EBB0E943D028091E80083FF0AC05F
:101EB0008091E800877F8093E8008091EB0080624A
:101EC0008093EB000F900F900F90CF91DF911F91B7
:101ED000089508951F938EB3882371F01091E9003F
:101EE0008091EC001092E9008091E80083FF01C02E
:101EF000D0DE1F701093E9001F910895FC018EB38E
:101F0000843029F584899589A689B7890097A10528
:101F1000B105E9F086818F708093E9008091E80037
:101F200082FF15C08091F200882319F42FEF3FEF54
:101F300004C08091F100282F30E08091F2008823C6
:101F400041F48091E8008B778093E80002C02FEF86
:101F50003FEFC90108950895FC018EB3843019F54F
:101F600084899589A689B7890097A105B105D9F01B
:101F700081818F708093E9008091F2008823A9F01D
:101F80009091E8008091E8008E778093E80095FDBD
:101F90000CC078DD982F882349F48091E8008E7773
:101FA0008093E80003C092E001C090E0892F08957B
:101FB000FC018EB3843091F484899589A689B78910
:101FC0000097A105B10551F081818F708093E900E0
:101FD0008091E80080FF02C0CF01BECF08951F931B
:101FE000FC01162F8EB38430E1F484899589A6898B
:101FF000B7890097A105B105A1F081818F70809309
:10200000E9008091E80085FD08C08091E8008E77A6
:102010008093E80037DD882329F41093F10080E0F5
:1020200001C082E01F910895CF93DF93EC014096A9
:10203000FC018BE0DF011D928A95E9F782E08C8339
:10204000898783E08E87CE01019661E0C0DC88231A
:1020500071F0CE01069661E0BADC882341F0CE0132
:102060000B9661E0B4DC882319F081E001C080E0C8
:10207000DF91CF910895CF93DF93EC018091E80039
:1020800083FFA4C0888190E02091E8023091E902AA
:102090002817390709F09AC08091E502813269F06A
:1020A000823220F4803209F091C03CC0823209F4BF
:1020B0006BC0833209F08AC07BC08091E402813A10
:1020C00009F084C08091E800877F8093E8008091C8
:1020D000E80080FFFCCF8C899D89AE89BF89809301
:1020E000F100292F3A2F4B2F55272093F1009D0106
:1020F000442755272093F1008B2F9927AA27BB2728
:102100008093F100888D8093F100898D8093F10098
:102110008A8D8093F1008091E8008E778093E800AB
:1021200092DC54C08091E402813209F04FC080916A
:10213000E800877F8093E80004C08EB3882309F409
:1021400045C08091E80082FFF8CF8091F100909126
:10215000F1002091F1003091F1008C8B9D8B2E8B42
:102160003F8B8091F100888F8091F100898F809161
:10217000F1008A8F8091E8008B778093E80063DC20
:10218000CE010E94E60122C08091E4028132F1F486
:102190008091E800877F8093E80055DC8091E6021B
:1021A0009091E702998B888BCE010E94A6010EC008
:1021B0008091E402813251F48091E800877F80931E
:1021C000E80041DCCE016091E602C5DEDF91CF91EF
:1021D0000895A1E21A2EAA1BBB1BFD010DC0AA1F68
:1021E000BB1FEE1FFF1FA217B307E407F50720F080
:1021F000A21BB30BE40BF50B661F771F881F991FFB
:102200001A9469F760957095809590959B01AC0143
:10221000BD01CF010895F999FECF92BD81BDF89A15
:10222000992780B50895262FF999FECF92BD81BDDB
:10223000F89A019700B4021639F01FBA20BD0FB604
:0E224000F894FA9AF99A0FBE0895F894FFCF19
:10224E00008310000001041000000182080000014C
:10225E00000000000000000000000009023E000225
:10226E000100C03209040000010202010005240031
:10227E001001042402060524060001070582030846
:10228E0000FF09040100020A000000070504021005
:10229E000005070583021000050902200001010058
:1022AE00C0320904000002FF000000070582024050
:1022BE00000A0705020240000A1C033000300030FD
:1022CE000032003000300030003100320033003474
:1022DE00003500000000004156524953505F4D4BEF
:1022EE0032008001008101009001009101019201F4
:1022FE00189401219803069E0301A10100A4030076
:02230E000100CC
:00000001FF
